{
	"contracts/liquid.sol": {
		"LiquidityPool": {
			"abi": [
				{
					"inputs": [
						{
							"internalType": "address",
							"name": "_echoToken",
							"type": "address"
						},
						{
							"internalType": "address",
							"name": "_orpheusToken",
							"type": "address"
						}
					],
					"stateMutability": "nonpayable",
					"type": "constructor"
				},
				{
					"inputs": [
						{
							"internalType": "uint256",
							"name": "echoAmount",
							"type": "uint256"
						},
						{
							"internalType": "uint256",
							"name": "orpheusAmount",
							"type": "uint256"
						}
					],
					"name": "addLiquidity",
					"outputs": [],
					"stateMutability": "nonpayable",
					"type": "function"
				},
				{
					"inputs": [
						{
							"internalType": "address",
							"name": "",
							"type": "address"
						}
					],
					"name": "echoBalances",
					"outputs": [
						{
							"internalType": "uint256",
							"name": "",
							"type": "uint256"
						}
					],
					"stateMutability": "view",
					"type": "function"
				},
				{
					"inputs": [],
					"name": "echoToken",
					"outputs": [
						{
							"internalType": "contract IERC20",
							"name": "",
							"type": "address"
						}
					],
					"stateMutability": "view",
					"type": "function"
				},
				{
					"inputs": [],
					"name": "getReward",
					"outputs": [],
					"stateMutability": "nonpayable",
					"type": "function"
				},
				{
					"inputs": [
						{
							"internalType": "address",
							"name": "",
							"type": "address"
						}
					],
					"name": "orpheusBalances",
					"outputs": [
						{
							"internalType": "uint256",
							"name": "",
							"type": "uint256"
						}
					],
					"stateMutability": "view",
					"type": "function"
				},
				{
					"inputs": [],
					"name": "orpheusToken",
					"outputs": [
						{
							"internalType": "contract IERC20",
							"name": "",
							"type": "address"
						}
					],
					"stateMutability": "view",
					"type": "function"
				},
				{
					"inputs": [
						{
							"internalType": "uint256",
							"name": "share",
							"type": "uint256"
						}
					],
					"name": "removeLiquidity",
					"outputs": [],
					"stateMutability": "nonpayable",
					"type": "function"
				},
				{
					"inputs": [
						{
							"internalType": "address",
							"name": "",
							"type": "address"
						}
					],
					"name": "shares",
					"outputs": [
						{
							"internalType": "uint256",
							"name": "",
							"type": "uint256"
						}
					],
					"stateMutability": "view",
					"type": "function"
				},
				{
					"inputs": [],
					"name": "totalEcho",
					"outputs": [
						{
							"internalType": "uint256",
							"name": "",
							"type": "uint256"
						}
					],
					"stateMutability": "view",
					"type": "function"
				},
				{
					"inputs": [],
					"name": "totalOrpheus",
					"outputs": [
						{
							"internalType": "uint256",
							"name": "",
							"type": "uint256"
						}
					],
					"stateMutability": "view",
					"type": "function"
				},
				{
					"inputs": [],
					"name": "totalShares",
					"outputs": [
						{
							"internalType": "uint256",
							"name": "",
							"type": "uint256"
						}
					],
					"stateMutability": "view",
					"type": "function"
				}
			],
			"devdoc": {
				"kind": "dev",
				"methods": {},
				"version": 1
			},
			"evm": {
				"assembly": "    /* \"contracts/liquid.sol\":115:2974  contract LiquidityPool {... */\n  mstore(0x40, 0x80)\n    /* \"contracts/liquid.sol\":439:587  constructor(address _echoToken, address _orpheusToken) {... */\n  callvalue\n  dup1\n  iszero\n  tag_1\n  jumpi\n  0x00\n  dup1\n  revert\ntag_1:\n  pop\n  mload(0x40)\n  sub(codesize, bytecodeSize)\n  dup1\n  bytecodeSize\n  dup4\n  codecopy\n  dup2\n  dup2\n  add\n  0x40\n  mstore\n  dup2\n  add\n  swap1\n  tag_2\n  swap2\n  swap1\n  tag_3\n  jump\t// in\ntag_2:\n    /* \"contracts/liquid.sol\":523:533  _echoToken */\n  dup2\n    /* \"contracts/liquid.sol\":504:513  echoToken */\n  0x00\n  dup1\n    /* \"contracts/liquid.sol\":504:534  echoToken = IERC20(_echoToken) */\n  0x0100\n  exp\n  dup2\n  sload\n  dup2\n  0xffffffffffffffffffffffffffffffffffffffff\n  mul\n  not\n  and\n  swap1\n  dup4\n  0xffffffffffffffffffffffffffffffffffffffff\n  and\n  mul\n  or\n  swap1\n  sstore\n  pop\n    /* \"contracts/liquid.sol\":566:579  _orpheusToken */\n  dup1\n    /* \"contracts/liquid.sol\":544:556  orpheusToken */\n  0x01\n  0x00\n    /* \"contracts/liquid.sol\":544:580  orpheusToken = IERC20(_orpheusToken) */\n  0x0100\n  exp\n  dup2\n  sload\n  dup2\n  0xffffffffffffffffffffffffffffffffffffffff\n  mul\n  not\n  and\n  swap1\n  dup4\n  0xffffffffffffffffffffffffffffffffffffffff\n  and\n  mul\n  or\n  swap1\n  sstore\n  pop\n    /* \"contracts/liquid.sol\":439:587  constructor(address _echoToken, address _orpheusToken) {... */\n  pop\n  pop\n    /* \"contracts/liquid.sol\":115:2974  contract LiquidityPool {... */\n  jump(tag_6)\n    /* \"#utility.yul\":7:150   */\ntag_8:\n    /* \"#utility.yul\":64:69   */\n  0x00\n    /* \"#utility.yul\":95:101   */\n  dup2\n    /* \"#utility.yul\":89:102   */\n  mload\n    /* \"#utility.yul\":80:102   */\n  swap1\n  pop\n    /* \"#utility.yul\":111:144   */\n  tag_10\n    /* \"#utility.yul\":138:143   */\n  dup2\n    /* \"#utility.yul\":111:144   */\n  tag_11\n  jump\t// in\ntag_10:\n    /* \"#utility.yul\":7:150   */\n  swap3\n  swap2\n  pop\n  pop\n  jump\t// out\n    /* \"#utility.yul\":156:663   */\ntag_3:\n    /* \"#utility.yul\":235:241   */\n  0x00\n    /* \"#utility.yul\":243:249   */\n  dup1\n    /* \"#utility.yul\":292:294   */\n  0x40\n    /* \"#utility.yul\":280:289   */\n  dup4\n    /* \"#utility.yul\":271:278   */\n  dup6\n    /* \"#utility.yul\":267:290   */\n  sub\n    /* \"#utility.yul\":263:295   */\n  slt\n    /* \"#utility.yul\":260:379   */\n  iszero\n  tag_13\n  jumpi\n    /* \"#utility.yul\":298:377   */\n  tag_14\n  tag_15\n  jump\t// in\ntag_14:\n    /* \"#utility.yul\":260:379   */\ntag_13:\n    /* \"#utility.yul\":418:419   */\n  0x00\n    /* \"#utility.yul\":443:507   */\n  tag_16\n    /* \"#utility.yul\":499:506   */\n  dup6\n    /* \"#utility.yul\":490:496   */\n  dup3\n    /* \"#utility.yul\":479:488   */\n  dup7\n    /* \"#utility.yul\":475:497   */\n  add\n    /* \"#utility.yul\":443:507   */\n  tag_8\n  jump\t// in\ntag_16:\n    /* \"#utility.yul\":433:507   */\n  swap3\n  pop\n    /* \"#utility.yul\":389:517   */\n  pop\n    /* \"#utility.yul\":556:558   */\n  0x20\n    /* \"#utility.yul\":582:646   */\n  tag_17\n    /* \"#utility.yul\":638:645   */\n  dup6\n    /* \"#utility.yul\":629:635   */\n  dup3\n    /* \"#utility.yul\":618:627   */\n  dup7\n    /* \"#utility.yul\":614:636   */\n  add\n    /* \"#utility.yul\":582:646   */\n  tag_8\n  jump\t// in\ntag_17:\n    /* \"#utility.yul\":572:646   */\n  swap2\n  pop\n    /* \"#utility.yul\":527:656   */\n  pop\n    /* \"#utility.yul\":156:663   */\n  swap3\n  pop\n  swap3\n  swap1\n  pop\n  jump\t// out\n    /* \"#utility.yul\":750:846   */\ntag_20:\n    /* \"#utility.yul\":787:794   */\n  0x00\n    /* \"#utility.yul\":816:840   */\n  tag_22\n    /* \"#utility.yul\":834:839   */\n  dup3\n    /* \"#utility.yul\":816:840   */\n  tag_23\n  jump\t// in\ntag_22:\n    /* \"#utility.yul\":805:840   */\n  swap1\n  pop\n    /* \"#utility.yul\":750:846   */\n  swap2\n  swap1\n  pop\n  jump\t// out\n    /* \"#utility.yul\":852:978   */\ntag_23:\n    /* \"#utility.yul\":889:896   */\n  0x00\n    /* \"#utility.yul\":929:971   */\n  0xffffffffffffffffffffffffffffffffffffffff\n    /* \"#utility.yul\":922:927   */\n  dup3\n    /* \"#utility.yul\":918:972   */\n  and\n    /* \"#utility.yul\":907:972   */\n  swap1\n  pop\n    /* \"#utility.yul\":852:978   */\n  swap2\n  swap1\n  pop\n  jump\t// out\n    /* \"#utility.yul\":1107:1224   */\ntag_15:\n    /* \"#utility.yul\":1216:1217   */\n  0x00\n    /* \"#utility.yul\":1213:1214   */\n  dup1\n    /* \"#utility.yul\":1206:1218   */\n  revert\n    /* \"#utility.yul\":1230:1352   */\ntag_11:\n    /* \"#utility.yul\":1303:1327   */\n  tag_29\n    /* \"#utility.yul\":1321:1326   */\n  dup2\n    /* \"#utility.yul\":1303:1327   */\n  tag_20\n  jump\t// in\ntag_29:\n    /* \"#utility.yul\":1296:1301   */\n  dup2\n    /* \"#utility.yul\":1293:1328   */\n  eq\n    /* \"#utility.yul\":1283:1346   */\n  tag_30\n  jumpi\n    /* \"#utility.yul\":1342:1343   */\n  0x00\n    /* \"#utility.yul\":1339:1340   */\n  dup1\n    /* \"#utility.yul\":1332:1344   */\n  revert\n    /* \"#utility.yul\":1283:1346   */\ntag_30:\n    /* \"#utility.yul\":1230:1352   */\n  pop\n  jump\t// out\n    /* \"contracts/liquid.sol\":115:2974  contract LiquidityPool {... */\ntag_6:\n  dataSize(sub_0)\n  dup1\n  dataOffset(sub_0)\n  0x00\n  codecopy\n  0x00\n  return\nstop\n\nsub_0: assembly {\n        /* \"contracts/liquid.sol\":115:2974  contract LiquidityPool {... */\n      mstore(0x40, 0x80)\n      callvalue\n      dup1\n      iszero\n      tag_1\n      jumpi\n      0x00\n      dup1\n      revert\n    tag_1:\n      pop\n      jumpi(tag_2, lt(calldatasize, 0x04))\n      shr(0xe0, calldataload(0x00))\n      dup1\n      0x6205230e\n      gt\n      tag_14\n      jumpi\n      dup1\n      0x6205230e\n      eq\n      tag_8\n      jumpi\n      dup1\n      0x90294664\n      eq\n      tag_9\n      jumpi\n      dup1\n      0x9c8f9f23\n      eq\n      tag_10\n      jumpi\n      dup1\n      0x9cd441da\n      eq\n      tag_11\n      jumpi\n      dup1\n      0xce7c2ac2\n      eq\n      tag_12\n      jumpi\n      dup1\n      0xe5babf98\n      eq\n      tag_13\n      jumpi\n      jump(tag_2)\n    tag_14:\n      dup1\n      0x14354f9f\n      eq\n      tag_3\n      jumpi\n      dup1\n      0x1e31dc58\n      eq\n      tag_4\n      jumpi\n      dup1\n      0x3a98ef39\n      eq\n      tag_5\n      jumpi\n      dup1\n      0x3d18b912\n      eq\n      tag_6\n      jumpi\n      dup1\n      0x5361b7eb\n      eq\n      tag_7\n      jumpi\n    tag_2:\n      0x00\n      dup1\n      revert\n        /* \"contracts/liquid.sol\":173:199  IERC20 public orpheusToken */\n    tag_3:\n      tag_15\n      tag_16\n      jump\t// in\n    tag_15:\n      mload(0x40)\n      tag_17\n      swap2\n      swap1\n      tag_18\n      jump\t// in\n    tag_17:\n      mload(0x40)\n      dup1\n      swap2\n      sub\n      swap1\n      return\n        /* \"contracts/liquid.sol\":205:249  mapping(address => uint) public echoBalances */\n    tag_4:\n      tag_19\n      0x04\n      dup1\n      calldatasize\n      sub\n      dup2\n      add\n      swap1\n      tag_20\n      swap2\n      swap1\n      tag_21\n      jump\t// in\n    tag_20:\n      tag_22\n      jump\t// in\n    tag_19:\n      mload(0x40)\n      tag_23\n      swap2\n      swap1\n      tag_24\n      jump\t// in\n    tag_23:\n      mload(0x40)\n      dup1\n      swap2\n      sub\n      swap1\n      return\n        /* \"contracts/liquid.sol\":365:388  uint public totalShares */\n    tag_5:\n      tag_25\n      tag_26\n      jump\t// in\n    tag_25:\n      mload(0x40)\n      tag_27\n      swap2\n      swap1\n      tag_24\n      jump\t// in\n    tag_27:\n      mload(0x40)\n      dup1\n      swap2\n      sub\n      swap1\n      return\n        /* \"contracts/liquid.sol\":2006:2775  function getReward() external {... */\n    tag_6:\n      tag_28\n      tag_29\n      jump\t// in\n    tag_28:\n      stop\n        /* \"contracts/liquid.sol\":308:329  uint public totalEcho */\n    tag_7:\n      tag_30\n      tag_31\n      jump\t// in\n    tag_30:\n      mload(0x40)\n      tag_32\n      swap2\n      swap1\n      tag_24\n      jump\t// in\n    tag_32:\n      mload(0x40)\n      dup1\n      swap2\n      sub\n      swap1\n      return\n        /* \"contracts/liquid.sol\":255:302  mapping(address => uint) public orpheusBalances */\n    tag_8:\n      tag_33\n      0x04\n      dup1\n      calldatasize\n      sub\n      dup2\n      add\n      swap1\n      tag_34\n      swap2\n      swap1\n      tag_21\n      jump\t// in\n    tag_34:\n      tag_35\n      jump\t// in\n    tag_33:\n      mload(0x40)\n      tag_36\n      swap2\n      swap1\n      tag_24\n      jump\t// in\n    tag_36:\n      mload(0x40)\n      dup1\n      swap2\n      sub\n      swap1\n      return\n        /* \"contracts/liquid.sol\":335:359  uint public totalOrpheus */\n    tag_9:\n      tag_37\n      tag_38\n      jump\t// in\n    tag_37:\n      mload(0x40)\n      tag_39\n      swap2\n      swap1\n      tag_24\n      jump\t// in\n    tag_39:\n      mload(0x40)\n      dup1\n      swap2\n      sub\n      swap1\n      return\n        /* \"contracts/liquid.sol\":1385:2000  function removeLiquidity(uint share) external {... */\n    tag_10:\n      tag_40\n      0x04\n      dup1\n      calldatasize\n      sub\n      dup2\n      add\n      swap1\n      tag_41\n      swap2\n      swap1\n      tag_42\n      jump\t// in\n    tag_41:\n      tag_43\n      jump\t// in\n    tag_40:\n      stop\n        /* \"contracts/liquid.sol\":593:1379  function addLiquidity(uint echoAmount, uint orpheusAmount) external {... */\n    tag_11:\n      tag_44\n      0x04\n      dup1\n      calldatasize\n      sub\n      dup2\n      add\n      swap1\n      tag_45\n      swap2\n      swap1\n      tag_46\n      jump\t// in\n    tag_45:\n      tag_47\n      jump\t// in\n    tag_44:\n      stop\n        /* \"contracts/liquid.sol\":394:432  mapping(address => uint) public shares */\n    tag_12:\n      tag_48\n      0x04\n      dup1\n      calldatasize\n      sub\n      dup2\n      add\n      swap1\n      tag_49\n      swap2\n      swap1\n      tag_21\n      jump\t// in\n    tag_49:\n      tag_50\n      jump\t// in\n    tag_48:\n      mload(0x40)\n      tag_51\n      swap2\n      swap1\n      tag_24\n      jump\t// in\n    tag_51:\n      mload(0x40)\n      dup1\n      swap2\n      sub\n      swap1\n      return\n        /* \"contracts/liquid.sol\":144:167  IERC20 public echoToken */\n    tag_13:\n      tag_52\n      tag_53\n      jump\t// in\n    tag_52:\n      mload(0x40)\n      tag_54\n      swap2\n      swap1\n      tag_18\n      jump\t// in\n    tag_54:\n      mload(0x40)\n      dup1\n      swap2\n      sub\n      swap1\n      return\n        /* \"contracts/liquid.sol\":173:199  IERC20 public orpheusToken */\n    tag_16:\n      0x01\n      0x00\n      swap1\n      sload\n      swap1\n      0x0100\n      exp\n      swap1\n      div\n      0xffffffffffffffffffffffffffffffffffffffff\n      and\n      dup2\n      jump\t// out\n        /* \"contracts/liquid.sol\":205:249  mapping(address => uint) public echoBalances */\n    tag_22:\n      mstore(0x20, 0x02)\n      dup1\n      0x00\n      mstore\n      keccak256(0x00, 0x40)\n      0x00\n      swap2\n      pop\n      swap1\n      pop\n      sload\n      dup2\n      jump\t// out\n        /* \"contracts/liquid.sol\":365:388  uint public totalShares */\n    tag_26:\n      sload(0x06)\n      dup2\n      jump\t// out\n        /* \"contracts/liquid.sol\":2006:2775  function getReward() external {... */\n    tag_29:\n        /* \"contracts/liquid.sol\":2046:2062  uint echoBalance */\n      0x00\n        /* \"contracts/liquid.sol\":2065:2074  echoToken */\n      dup1\n      0x00\n      swap1\n      sload\n      swap1\n      0x0100\n      exp\n      swap1\n      div\n      0xffffffffffffffffffffffffffffffffffffffff\n      and\n        /* \"contracts/liquid.sol\":2065:2084  echoToken.balanceOf */\n      0xffffffffffffffffffffffffffffffffffffffff\n      and\n      0x70a08231\n        /* \"contracts/liquid.sol\":2093:2097  this */\n      address\n        /* \"contracts/liquid.sol\":2065:2099  echoToken.balanceOf(address(this)) */\n      mload(0x40)\n      dup3\n      0xffffffff\n      and\n      0xe0\n      shl\n      dup2\n      mstore\n      0x04\n      add\n      tag_56\n      swap2\n      swap1\n      tag_57\n      jump\t// in\n    tag_56:\n      0x20\n      mload(0x40)\n      dup1\n      dup4\n      sub\n      dup2\n      dup7\n      dup1\n      extcodesize\n      iszero\n      dup1\n      iszero\n      tag_58\n      jumpi\n      0x00\n      dup1\n      revert\n    tag_58:\n      pop\n      gas\n      staticcall\n      iszero\n      dup1\n      iszero\n      tag_60\n      jumpi\n      returndatasize\n      0x00\n      dup1\n      returndatacopy\n      revert(0x00, returndatasize)\n    tag_60:\n      pop\n      pop\n      pop\n      pop\n      mload(0x40)\n      returndatasize\n      not(0x1f)\n      0x1f\n      dup3\n      add\n      and\n      dup3\n      add\n      dup1\n      0x40\n      mstore\n      pop\n      dup2\n      add\n      swap1\n      tag_61\n      swap2\n      swap1\n      tag_62\n      jump\t// in\n    tag_61:\n        /* \"contracts/liquid.sol\":2046:2099  uint echoBalance = echoToken.balanceOf(address(this)) */\n      swap1\n      pop\n        /* \"contracts/liquid.sol\":2109:2128  uint orpheusBalance */\n      0x00\n        /* \"contracts/liquid.sol\":2131:2143  orpheusToken */\n      0x01\n      0x00\n      swap1\n      sload\n      swap1\n      0x0100\n      exp\n      swap1\n      div\n      0xffffffffffffffffffffffffffffffffffffffff\n      and\n        /* \"contracts/liquid.sol\":2131:2153  orpheusToken.balanceOf */\n      0xffffffffffffffffffffffffffffffffffffffff\n      and\n      0x70a08231\n        /* \"contracts/liquid.sol\":2162:2166  this */\n      address\n        /* \"contracts/liquid.sol\":2131:2168  orpheusToken.balanceOf(address(this)) */\n      mload(0x40)\n      dup3\n      0xffffffff\n      and\n      0xe0\n      shl\n      dup2\n      mstore\n      0x04\n      add\n      tag_63\n      swap2\n      swap1\n      tag_57\n      jump\t// in\n    tag_63:\n      0x20\n      mload(0x40)\n      dup1\n      dup4\n      sub\n      dup2\n      dup7\n      dup1\n      extcodesize\n      iszero\n      dup1\n      iszero\n      tag_64\n      jumpi\n      0x00\n      dup1\n      revert\n    tag_64:\n      pop\n      gas\n      staticcall\n      iszero\n      dup1\n      iszero\n      tag_66\n      jumpi\n      returndatasize\n      0x00\n      dup1\n      returndatacopy\n      revert(0x00, returndatasize)\n    tag_66:\n      pop\n      pop\n      pop\n      pop\n      mload(0x40)\n      returndatasize\n      not(0x1f)\n      0x1f\n      dup3\n      add\n      and\n      dup3\n      add\n      dup1\n      0x40\n      mstore\n      pop\n      dup2\n      add\n      swap1\n      tag_67\n      swap2\n      swap1\n      tag_62\n      jump\t// in\n    tag_67:\n        /* \"contracts/liquid.sol\":2109:2168  uint orpheusBalance = orpheusToken.balanceOf(address(this)) */\n      swap1\n      pop\n        /* \"contracts/liquid.sol\":2178:2193  uint echoReward */\n      0x00\n        /* \"contracts/liquid.sol\":2226:2235  totalEcho */\n      sload(0x04)\n        /* \"contracts/liquid.sol\":2211:2222  totalShares */\n      sload(0x06)\n        /* \"contracts/liquid.sol\":2197:2208  echoBalance */\n      dup5\n        /* \"contracts/liquid.sol\":2197:2222  echoBalance * totalShares */\n      tag_68\n      swap2\n      swap1\n      tag_69\n      jump\t// in\n    tag_68:\n        /* \"contracts/liquid.sol\":2196:2235  (echoBalance * totalShares) / totalEcho */\n      tag_70\n      swap2\n      swap1\n      tag_71\n      jump\t// in\n    tag_70:\n        /* \"contracts/liquid.sol\":2178:2235  uint echoReward = (echoBalance * totalShares) / totalEcho */\n      swap1\n      pop\n        /* \"contracts/liquid.sol\":2245:2263  uint orpheusReward */\n      0x00\n        /* \"contracts/liquid.sol\":2299:2311  totalOrpheus */\n      sload(0x05)\n        /* \"contracts/liquid.sol\":2284:2295  totalShares */\n      sload(0x06)\n        /* \"contracts/liquid.sol\":2267:2281  orpheusBalance */\n      dup5\n        /* \"contracts/liquid.sol\":2267:2295  orpheusBalance * totalShares */\n      tag_72\n      swap2\n      swap1\n      tag_69\n      jump\t// in\n    tag_72:\n        /* \"contracts/liquid.sol\":2266:2311  (orpheusBalance * totalShares) / totalOrpheus */\n      tag_73\n      swap2\n      swap1\n      tag_71\n      jump\t// in\n    tag_73:\n        /* \"contracts/liquid.sol\":2245:2311  uint orpheusReward = (orpheusBalance * totalShares) / totalOrpheus */\n      swap1\n      pop\n        /* \"contracts/liquid.sol\":2326:2341  uint256 account */\n      0x00\n        /* \"contracts/liquid.sol\":2321:2769  for (uint256 account = 0; account < totalShares; account++) {... */\n    tag_74:\n        /* \"contracts/liquid.sol\":2357:2368  totalShares */\n      sload(0x06)\n        /* \"contracts/liquid.sol\":2347:2354  account */\n      dup2\n        /* \"contracts/liquid.sol\":2347:2368  account < totalShares */\n      lt\n        /* \"contracts/liquid.sol\":2321:2769  for (uint256 account = 0; account < totalShares; account++) {... */\n      iszero\n      tag_75\n      jumpi\n        /* \"contracts/liquid.sol\":2395:2417  address accountAddress */\n      0x00\n        /* \"contracts/liquid.sol\":2436:2443  account */\n      dup2\n        /* \"contracts/liquid.sol\":2395:2445  address accountAddress = address(uint160(account)) */\n      swap1\n      pop\n        /* \"contracts/liquid.sol\":2459:2469  uint share */\n      0x00\n        /* \"contracts/liquid.sol\":2472:2478  shares */\n      0x07\n        /* \"contracts/liquid.sol\":2472:2494  shares[accountAddress] */\n      0x00\n        /* \"contracts/liquid.sol\":2479:2493  accountAddress */\n      dup4\n        /* \"contracts/liquid.sol\":2472:2494  shares[accountAddress] */\n      0xffffffffffffffffffffffffffffffffffffffff\n      and\n      0xffffffffffffffffffffffffffffffffffffffff\n      and\n      dup2\n      mstore\n      0x20\n      add\n      swap1\n      dup2\n      mstore\n      0x20\n      add\n      0x00\n      keccak256\n      sload\n        /* \"contracts/liquid.sol\":2459:2494  uint share = shares[accountAddress] */\n      swap1\n      pop\n        /* \"contracts/liquid.sol\":2508:2523  uint echoAmount */\n      0x00\n        /* \"contracts/liquid.sol\":2549:2560  totalShares */\n      sload(0x06)\n        /* \"contracts/liquid.sol\":2535:2545  echoReward */\n      dup7\n        /* \"contracts/liquid.sol\":2527:2532  share */\n      dup4\n        /* \"contracts/liquid.sol\":2527:2545  share * echoReward */\n      tag_77\n      swap2\n      swap1\n      tag_69\n      jump\t// in\n    tag_77:\n        /* \"contracts/liquid.sol\":2526:2560  (share * echoReward) / totalShares */\n      tag_78\n      swap2\n      swap1\n      tag_71\n      jump\t// in\n    tag_78:\n        /* \"contracts/liquid.sol\":2508:2560  uint echoAmount = (share * echoReward) / totalShares */\n      swap1\n      pop\n        /* \"contracts/liquid.sol\":2574:2592  uint orpheusAmount */\n      0x00\n        /* \"contracts/liquid.sol\":2621:2632  totalShares */\n      sload(0x06)\n        /* \"contracts/liquid.sol\":2604:2617  orpheusReward */\n      dup7\n        /* \"contracts/liquid.sol\":2596:2601  share */\n      dup5\n        /* \"contracts/liquid.sol\":2596:2617  share * orpheusReward */\n      tag_79\n      swap2\n      swap1\n      tag_69\n      jump\t// in\n    tag_79:\n        /* \"contracts/liquid.sol\":2595:2632  (share * orpheusReward) / totalShares */\n      tag_80\n      swap2\n      swap1\n      tag_71\n      jump\t// in\n    tag_80:\n        /* \"contracts/liquid.sol\":2574:2632  uint orpheusAmount = (share * orpheusReward) / totalShares */\n      swap1\n      pop\n        /* \"contracts/liquid.sol\":2646:2655  echoToken */\n      0x00\n      dup1\n      sload\n      swap1\n      0x0100\n      exp\n      swap1\n      div\n      0xffffffffffffffffffffffffffffffffffffffff\n      and\n        /* \"contracts/liquid.sol\":2646:2664  echoToken.transfer */\n      0xffffffffffffffffffffffffffffffffffffffff\n      and\n      0xa9059cbb\n        /* \"contracts/liquid.sol\":2665:2679  accountAddress */\n      dup6\n        /* \"contracts/liquid.sol\":2681:2691  echoAmount */\n      dup5\n        /* \"contracts/liquid.sol\":2646:2692  echoToken.transfer(accountAddress, echoAmount) */\n      mload(0x40)\n      dup4\n      0xffffffff\n      and\n      0xe0\n      shl\n      dup2\n      mstore\n      0x04\n      add\n      tag_81\n      swap3\n      swap2\n      swap1\n      tag_82\n      jump\t// in\n    tag_81:\n      0x20\n      mload(0x40)\n      dup1\n      dup4\n      sub\n      dup2\n      0x00\n      dup8\n      dup1\n      extcodesize\n      iszero\n      dup1\n      iszero\n      tag_83\n      jumpi\n      0x00\n      dup1\n      revert\n    tag_83:\n      pop\n      gas\n      call\n      iszero\n      dup1\n      iszero\n      tag_85\n      jumpi\n      returndatasize\n      0x00\n      dup1\n      returndatacopy\n      revert(0x00, returndatasize)\n    tag_85:\n      pop\n      pop\n      pop\n      pop\n      mload(0x40)\n      returndatasize\n      not(0x1f)\n      0x1f\n      dup3\n      add\n      and\n      dup3\n      add\n      dup1\n      0x40\n      mstore\n      pop\n      dup2\n      add\n      swap1\n      tag_86\n      swap2\n      swap1\n      tag_87\n      jump\t// in\n    tag_86:\n      pop\n        /* \"contracts/liquid.sol\":2706:2718  orpheusToken */\n      0x01\n      0x00\n      swap1\n      sload\n      swap1\n      0x0100\n      exp\n      swap1\n      div\n      0xffffffffffffffffffffffffffffffffffffffff\n      and\n        /* \"contracts/liquid.sol\":2706:2727  orpheusToken.transfer */\n      0xffffffffffffffffffffffffffffffffffffffff\n      and\n      0xa9059cbb\n        /* \"contracts/liquid.sol\":2728:2742  accountAddress */\n      dup6\n        /* \"contracts/liquid.sol\":2744:2757  orpheusAmount */\n      dup4\n        /* \"contracts/liquid.sol\":2706:2758  orpheusToken.transfer(accountAddress, orpheusAmount) */\n      mload(0x40)\n      dup4\n      0xffffffff\n      and\n      0xe0\n      shl\n      dup2\n      mstore\n      0x04\n      add\n      tag_88\n      swap3\n      swap2\n      swap1\n      tag_82\n      jump\t// in\n    tag_88:\n      0x20\n      mload(0x40)\n      dup1\n      dup4\n      sub\n      dup2\n      0x00\n      dup8\n      dup1\n      extcodesize\n      iszero\n      dup1\n      iszero\n      tag_89\n      jumpi\n      0x00\n      dup1\n      revert\n    tag_89:\n      pop\n      gas\n      call\n      iszero\n      dup1\n      iszero\n      tag_91\n      jumpi\n      returndatasize\n      0x00\n      dup1\n      returndatacopy\n      revert(0x00, returndatasize)\n    tag_91:\n      pop\n      pop\n      pop\n      pop\n      mload(0x40)\n      returndatasize\n      not(0x1f)\n      0x1f\n      dup3\n      add\n      and\n      dup3\n      add\n      dup1\n      0x40\n      mstore\n      pop\n      dup2\n      add\n      swap1\n      tag_92\n      swap2\n      swap1\n      tag_87\n      jump\t// in\n    tag_92:\n      pop\n        /* \"contracts/liquid.sol\":2381:2769  {... */\n      pop\n      pop\n      pop\n      pop\n        /* \"contracts/liquid.sol\":2370:2379  account++ */\n      dup1\n      dup1\n      tag_93\n      swap1\n      tag_94\n      jump\t// in\n    tag_93:\n      swap2\n      pop\n      pop\n        /* \"contracts/liquid.sol\":2321:2769  for (uint256 account = 0; account < totalShares; account++) {... */\n      jump(tag_74)\n    tag_75:\n      pop\n        /* \"contracts/liquid.sol\":2036:2775  {... */\n      pop\n      pop\n      pop\n      pop\n        /* \"contracts/liquid.sol\":2006:2775  function getReward() external {... */\n      jump\t// out\n        /* \"contracts/liquid.sol\":308:329  uint public totalEcho */\n    tag_31:\n      sload(0x04)\n      dup2\n      jump\t// out\n        /* \"contracts/liquid.sol\":255:302  mapping(address => uint) public orpheusBalances */\n    tag_35:\n      mstore(0x20, 0x03)\n      dup1\n      0x00\n      mstore\n      keccak256(0x00, 0x40)\n      0x00\n      swap2\n      pop\n      swap1\n      pop\n      sload\n      dup2\n      jump\t// out\n        /* \"contracts/liquid.sol\":335:359  uint public totalOrpheus */\n    tag_38:\n      sload(0x05)\n      dup2\n      jump\t// out\n        /* \"contracts/liquid.sol\":1385:2000  function removeLiquidity(uint share) external {... */\n    tag_43:\n        /* \"contracts/liquid.sol\":1457:1458  0 */\n      0x00\n        /* \"contracts/liquid.sol\":1449:1454  share */\n      dup2\n        /* \"contracts/liquid.sol\":1449:1458  share > 0 */\n      gt\n        /* \"contracts/liquid.sol\":1449:1489  share > 0 && shares[msg.sender] >= share */\n      dup1\n      iszero\n      tag_96\n      jumpi\n      pop\n        /* \"contracts/liquid.sol\":1484:1489  share */\n      dup1\n        /* \"contracts/liquid.sol\":1462:1468  shares */\n      0x07\n        /* \"contracts/liquid.sol\":1462:1480  shares[msg.sender] */\n      0x00\n        /* \"contracts/liquid.sol\":1469:1479  msg.sender */\n      caller\n        /* \"contracts/liquid.sol\":1462:1480  shares[msg.sender] */\n      0xffffffffffffffffffffffffffffffffffffffff\n      and\n      0xffffffffffffffffffffffffffffffffffffffff\n      and\n      dup2\n      mstore\n      0x20\n      add\n      swap1\n      dup2\n      mstore\n      0x20\n      add\n      0x00\n      keccak256\n      sload\n        /* \"contracts/liquid.sol\":1462:1489  shares[msg.sender] >= share */\n      lt\n      iszero\n        /* \"contracts/liquid.sol\":1449:1489  share > 0 && shares[msg.sender] >= share */\n    tag_96:\n        /* \"contracts/liquid.sol\":1441:1514  require(share > 0 && shares[msg.sender] >= share, \"Invalid share amount\") */\n      tag_97\n      jumpi\n      mload(0x40)\n      0x08c379a000000000000000000000000000000000000000000000000000000000\n      dup2\n      mstore\n      0x04\n      add\n      tag_98\n      swap1\n      tag_99\n      jump\t// in\n    tag_98:\n      mload(0x40)\n      dup1\n      swap2\n      sub\n      swap1\n      revert\n    tag_97:\n        /* \"contracts/liquid.sol\":1524:1539  uint echoAmount */\n      0x00\n        /* \"contracts/liquid.sol\":1564:1575  totalShares */\n      sload(0x06)\n        /* \"contracts/liquid.sol\":1551:1560  totalEcho */\n      sload(0x04)\n        /* \"contracts/liquid.sol\":1543:1548  share */\n      dup4\n        /* \"contracts/liquid.sol\":1543:1560  share * totalEcho */\n      tag_100\n      swap2\n      swap1\n      tag_69\n      jump\t// in\n    tag_100:\n        /* \"contracts/liquid.sol\":1542:1575  (share * totalEcho) / totalShares */\n      tag_101\n      swap2\n      swap1\n      tag_71\n      jump\t// in\n    tag_101:\n        /* \"contracts/liquid.sol\":1524:1575  uint echoAmount = (share * totalEcho) / totalShares */\n      swap1\n      pop\n        /* \"contracts/liquid.sol\":1585:1603  uint orpheusAmount */\n      0x00\n        /* \"contracts/liquid.sol\":1631:1642  totalShares */\n      sload(0x06)\n        /* \"contracts/liquid.sol\":1615:1627  totalOrpheus */\n      sload(0x05)\n        /* \"contracts/liquid.sol\":1607:1612  share */\n      dup5\n        /* \"contracts/liquid.sol\":1607:1627  share * totalOrpheus */\n      tag_102\n      swap2\n      swap1\n      tag_69\n      jump\t// in\n    tag_102:\n        /* \"contracts/liquid.sol\":1606:1642  (share * totalOrpheus) / totalShares */\n      tag_103\n      swap2\n      swap1\n      tag_71\n      jump\t// in\n    tag_103:\n        /* \"contracts/liquid.sol\":1585:1642  uint orpheusAmount = (share * totalOrpheus) / totalShares */\n      swap1\n      pop\n        /* \"contracts/liquid.sol\":1680:1690  echoAmount */\n      dup2\n        /* \"contracts/liquid.sol\":1652:1664  echoBalances */\n      0x02\n        /* \"contracts/liquid.sol\":1652:1676  echoBalances[msg.sender] */\n      0x00\n        /* \"contracts/liquid.sol\":1665:1675  msg.sender */\n      caller\n        /* \"contracts/liquid.sol\":1652:1676  echoBalances[msg.sender] */\n      0xffffffffffffffffffffffffffffffffffffffff\n      and\n      0xffffffffffffffffffffffffffffffffffffffff\n      and\n      dup2\n      mstore\n      0x20\n      add\n      swap1\n      dup2\n      mstore\n      0x20\n      add\n      0x00\n      keccak256\n      0x00\n        /* \"contracts/liquid.sol\":1652:1690  echoBalances[msg.sender] -= echoAmount */\n      dup3\n      dup3\n      sload\n      tag_104\n      swap2\n      swap1\n      tag_105\n      jump\t// in\n    tag_104:\n      swap3\n      pop\n      pop\n      dup2\n      swap1\n      sstore\n      pop\n        /* \"contracts/liquid.sol\":1731:1744  orpheusAmount */\n      dup1\n        /* \"contracts/liquid.sol\":1700:1715  orpheusBalances */\n      0x03\n        /* \"contracts/liquid.sol\":1700:1727  orpheusBalances[msg.sender] */\n      0x00\n        /* \"contracts/liquid.sol\":1716:1726  msg.sender */\n      caller\n        /* \"contracts/liquid.sol\":1700:1727  orpheusBalances[msg.sender] */\n      0xffffffffffffffffffffffffffffffffffffffff\n      and\n      0xffffffffffffffffffffffffffffffffffffffff\n      and\n      dup2\n      mstore\n      0x20\n      add\n      swap1\n      dup2\n      mstore\n      0x20\n      add\n      0x00\n      keccak256\n      0x00\n        /* \"contracts/liquid.sol\":1700:1744  orpheusBalances[msg.sender] -= orpheusAmount */\n      dup3\n      dup3\n      sload\n      tag_106\n      swap2\n      swap1\n      tag_105\n      jump\t// in\n    tag_106:\n      swap3\n      pop\n      pop\n      dup2\n      swap1\n      sstore\n      pop\n        /* \"contracts/liquid.sol\":1767:1777  echoAmount */\n      dup2\n        /* \"contracts/liquid.sol\":1754:1763  totalEcho */\n      0x04\n      0x00\n        /* \"contracts/liquid.sol\":1754:1777  totalEcho -= echoAmount */\n      dup3\n      dup3\n      sload\n      tag_107\n      swap2\n      swap1\n      tag_105\n      jump\t// in\n    tag_107:\n      swap3\n      pop\n      pop\n      dup2\n      swap1\n      sstore\n      pop\n        /* \"contracts/liquid.sol\":1803:1816  orpheusAmount */\n      dup1\n        /* \"contracts/liquid.sol\":1787:1799  totalOrpheus */\n      0x05\n      0x00\n        /* \"contracts/liquid.sol\":1787:1816  totalOrpheus -= orpheusAmount */\n      dup3\n      dup3\n      sload\n      tag_108\n      swap2\n      swap1\n      tag_105\n      jump\t// in\n    tag_108:\n      swap3\n      pop\n      pop\n      dup2\n      swap1\n      sstore\n      pop\n        /* \"contracts/liquid.sol\":1848:1853  share */\n      dup3\n        /* \"contracts/liquid.sol\":1826:1832  shares */\n      0x07\n        /* \"contracts/liquid.sol\":1826:1844  shares[msg.sender] */\n      0x00\n        /* \"contracts/liquid.sol\":1833:1843  msg.sender */\n      caller\n        /* \"contracts/liquid.sol\":1826:1844  shares[msg.sender] */\n      0xffffffffffffffffffffffffffffffffffffffff\n      and\n      0xffffffffffffffffffffffffffffffffffffffff\n      and\n      dup2\n      mstore\n      0x20\n      add\n      swap1\n      dup2\n      mstore\n      0x20\n      add\n      0x00\n      keccak256\n      0x00\n        /* \"contracts/liquid.sol\":1826:1853  shares[msg.sender] -= share */\n      dup3\n      dup3\n      sload\n      tag_109\n      swap2\n      swap1\n      tag_105\n      jump\t// in\n    tag_109:\n      swap3\n      pop\n      pop\n      dup2\n      swap1\n      sstore\n      pop\n        /* \"contracts/liquid.sol\":1878:1883  share */\n      dup3\n        /* \"contracts/liquid.sol\":1863:1874  totalShares */\n      0x06\n      0x00\n        /* \"contracts/liquid.sol\":1863:1883  totalShares -= share */\n      dup3\n      dup3\n      sload\n      tag_110\n      swap2\n      swap1\n      tag_105\n      jump\t// in\n    tag_110:\n      swap3\n      pop\n      pop\n      dup2\n      swap1\n      sstore\n      pop\n        /* \"contracts/liquid.sol\":1893:1902  echoToken */\n      0x00\n      dup1\n      sload\n      swap1\n      0x0100\n      exp\n      swap1\n      div\n      0xffffffffffffffffffffffffffffffffffffffff\n      and\n        /* \"contracts/liquid.sol\":1893:1911  echoToken.transfer */\n      0xffffffffffffffffffffffffffffffffffffffff\n      and\n      0xa9059cbb\n        /* \"contracts/liquid.sol\":1912:1922  msg.sender */\n      caller\n        /* \"contracts/liquid.sol\":1924:1934  echoAmount */\n      dup5\n        /* \"contracts/liquid.sol\":1893:1935  echoToken.transfer(msg.sender, echoAmount) */\n      mload(0x40)\n      dup4\n      0xffffffff\n      and\n      0xe0\n      shl\n      dup2\n      mstore\n      0x04\n      add\n      tag_111\n      swap3\n      swap2\n      swap1\n      tag_82\n      jump\t// in\n    tag_111:\n      0x20\n      mload(0x40)\n      dup1\n      dup4\n      sub\n      dup2\n      0x00\n      dup8\n      dup1\n      extcodesize\n      iszero\n      dup1\n      iszero\n      tag_112\n      jumpi\n      0x00\n      dup1\n      revert\n    tag_112:\n      pop\n      gas\n      call\n      iszero\n      dup1\n      iszero\n      tag_114\n      jumpi\n      returndatasize\n      0x00\n      dup1\n      returndatacopy\n      revert(0x00, returndatasize)\n    tag_114:\n      pop\n      pop\n      pop\n      pop\n      mload(0x40)\n      returndatasize\n      not(0x1f)\n      0x1f\n      dup3\n      add\n      and\n      dup3\n      add\n      dup1\n      0x40\n      mstore\n      pop\n      dup2\n      add\n      swap1\n      tag_115\n      swap2\n      swap1\n      tag_87\n      jump\t// in\n    tag_115:\n      pop\n        /* \"contracts/liquid.sol\":1945:1957  orpheusToken */\n      0x01\n      0x00\n      swap1\n      sload\n      swap1\n      0x0100\n      exp\n      swap1\n      div\n      0xffffffffffffffffffffffffffffffffffffffff\n      and\n        /* \"contracts/liquid.sol\":1945:1966  orpheusToken.transfer */\n      0xffffffffffffffffffffffffffffffffffffffff\n      and\n      0xa9059cbb\n        /* \"contracts/liquid.sol\":1967:1977  msg.sender */\n      caller\n        /* \"contracts/liquid.sol\":1979:1992  orpheusAmount */\n      dup4\n        /* \"contracts/liquid.sol\":1945:1993  orpheusToken.transfer(msg.sender, orpheusAmount) */\n      mload(0x40)\n      dup4\n      0xffffffff\n      and\n      0xe0\n      shl\n      dup2\n      mstore\n      0x04\n      add\n      tag_116\n      swap3\n      swap2\n      swap1\n      tag_82\n      jump\t// in\n    tag_116:\n      0x20\n      mload(0x40)\n      dup1\n      dup4\n      sub\n      dup2\n      0x00\n      dup8\n      dup1\n      extcodesize\n      iszero\n      dup1\n      iszero\n      tag_117\n      jumpi\n      0x00\n      dup1\n      revert\n    tag_117:\n      pop\n      gas\n      call\n      iszero\n      dup1\n      iszero\n      tag_119\n      jumpi\n      returndatasize\n      0x00\n      dup1\n      returndatacopy\n      revert(0x00, returndatasize)\n    tag_119:\n      pop\n      pop\n      pop\n      pop\n      mload(0x40)\n      returndatasize\n      not(0x1f)\n      0x1f\n      dup3\n      add\n      and\n      dup3\n      add\n      dup1\n      0x40\n      mstore\n      pop\n      dup2\n      add\n      swap1\n      tag_120\n      swap2\n      swap1\n      tag_87\n      jump\t// in\n    tag_120:\n      pop\n        /* \"contracts/liquid.sol\":1431:2000  {... */\n      pop\n      pop\n        /* \"contracts/liquid.sol\":1385:2000  function removeLiquidity(uint share) external {... */\n      pop\n      jump\t// out\n        /* \"contracts/liquid.sol\":593:1379  function addLiquidity(uint echoAmount, uint orpheusAmount) external {... */\n    tag_47:\n        /* \"contracts/liquid.sol\":692:693  0 */\n      0x00\n        /* \"contracts/liquid.sol\":679:689  echoAmount */\n      dup3\n        /* \"contracts/liquid.sol\":679:693  echoAmount > 0 */\n      gt\n        /* \"contracts/liquid.sol\":679:714  echoAmount > 0 && orpheusAmount > 0 */\n      dup1\n      iszero\n      tag_122\n      jumpi\n      pop\n        /* \"contracts/liquid.sol\":713:714  0 */\n      0x00\n        /* \"contracts/liquid.sol\":697:710  orpheusAmount */\n      dup2\n        /* \"contracts/liquid.sol\":697:714  orpheusAmount > 0 */\n      gt\n        /* \"contracts/liquid.sol\":679:714  echoAmount > 0 && orpheusAmount > 0 */\n    tag_122:\n        /* \"contracts/liquid.sol\":671:743  require(echoAmount > 0 && orpheusAmount > 0, \"Invalid liquidity amount\") */\n      tag_123\n      jumpi\n      mload(0x40)\n      0x08c379a000000000000000000000000000000000000000000000000000000000\n      dup2\n      mstore\n      0x04\n      add\n      tag_124\n      swap1\n      tag_125\n      jump\t// in\n    tag_124:\n      mload(0x40)\n      dup1\n      swap2\n      sub\n      swap1\n      revert\n    tag_123:\n        /* \"contracts/liquid.sol\":753:762  echoToken */\n      0x00\n      dup1\n      sload\n      swap1\n      0x0100\n      exp\n      swap1\n      div\n      0xffffffffffffffffffffffffffffffffffffffff\n      and\n        /* \"contracts/liquid.sol\":753:775  echoToken.transferFrom */\n      0xffffffffffffffffffffffffffffffffffffffff\n      and\n      0x23b872dd\n        /* \"contracts/liquid.sol\":776:786  msg.sender */\n      caller\n        /* \"contracts/liquid.sol\":796:800  this */\n      address\n        /* \"contracts/liquid.sol\":803:813  echoAmount */\n      dup6\n        /* \"contracts/liquid.sol\":753:814  echoToken.transferFrom(msg.sender, address(this), echoAmount) */\n      mload(0x40)\n      dup5\n      0xffffffff\n      and\n      0xe0\n      shl\n      dup2\n      mstore\n      0x04\n      add\n      tag_126\n      swap4\n      swap3\n      swap2\n      swap1\n      tag_127\n      jump\t// in\n    tag_126:\n      0x20\n      mload(0x40)\n      dup1\n      dup4\n      sub\n      dup2\n      0x00\n      dup8\n      dup1\n      extcodesize\n      iszero\n      dup1\n      iszero\n      tag_128\n      jumpi\n      0x00\n      dup1\n      revert\n    tag_128:\n      pop\n      gas\n      call\n      iszero\n      dup1\n      iszero\n      tag_130\n      jumpi\n      returndatasize\n      0x00\n      dup1\n      returndatacopy\n      revert(0x00, returndatasize)\n    tag_130:\n      pop\n      pop\n      pop\n      pop\n      mload(0x40)\n      returndatasize\n      not(0x1f)\n      0x1f\n      dup3\n      add\n      and\n      dup3\n      add\n      dup1\n      0x40\n      mstore\n      pop\n      dup2\n      add\n      swap1\n      tag_131\n      swap2\n      swap1\n      tag_87\n      jump\t// in\n    tag_131:\n      pop\n        /* \"contracts/liquid.sol\":824:836  orpheusToken */\n      0x01\n      0x00\n      swap1\n      sload\n      swap1\n      0x0100\n      exp\n      swap1\n      div\n      0xffffffffffffffffffffffffffffffffffffffff\n      and\n        /* \"contracts/liquid.sol\":824:849  orpheusToken.transferFrom */\n      0xffffffffffffffffffffffffffffffffffffffff\n      and\n      0x23b872dd\n        /* \"contracts/liquid.sol\":850:860  msg.sender */\n      caller\n        /* \"contracts/liquid.sol\":870:874  this */\n      address\n        /* \"contracts/liquid.sol\":877:890  orpheusAmount */\n      dup5\n        /* \"contracts/liquid.sol\":824:891  orpheusToken.transferFrom(msg.sender, address(this), orpheusAmount) */\n      mload(0x40)\n      dup5\n      0xffffffff\n      and\n      0xe0\n      shl\n      dup2\n      mstore\n      0x04\n      add\n      tag_132\n      swap4\n      swap3\n      swap2\n      swap1\n      tag_127\n      jump\t// in\n    tag_132:\n      0x20\n      mload(0x40)\n      dup1\n      dup4\n      sub\n      dup2\n      0x00\n      dup8\n      dup1\n      extcodesize\n      iszero\n      dup1\n      iszero\n      tag_133\n      jumpi\n      0x00\n      dup1\n      revert\n    tag_133:\n      pop\n      gas\n      call\n      iszero\n      dup1\n      iszero\n      tag_135\n      jumpi\n      returndatasize\n      0x00\n      dup1\n      returndatacopy\n      revert(0x00, returndatasize)\n    tag_135:\n      pop\n      pop\n      pop\n      pop\n      mload(0x40)\n      returndatasize\n      not(0x1f)\n      0x1f\n      dup3\n      add\n      and\n      dup3\n      add\n      dup1\n      0x40\n      mstore\n      pop\n      dup2\n      add\n      swap1\n      tag_136\n      swap2\n      swap1\n      tag_87\n      jump\t// in\n    tag_136:\n      pop\n        /* \"contracts/liquid.sol\":929:939  echoAmount */\n      dup2\n        /* \"contracts/liquid.sol\":901:913  echoBalances */\n      0x02\n        /* \"contracts/liquid.sol\":901:925  echoBalances[msg.sender] */\n      0x00\n        /* \"contracts/liquid.sol\":914:924  msg.sender */\n      caller\n        /* \"contracts/liquid.sol\":901:925  echoBalances[msg.sender] */\n      0xffffffffffffffffffffffffffffffffffffffff\n      and\n      0xffffffffffffffffffffffffffffffffffffffff\n      and\n      dup2\n      mstore\n      0x20\n      add\n      swap1\n      dup2\n      mstore\n      0x20\n      add\n      0x00\n      keccak256\n      0x00\n        /* \"contracts/liquid.sol\":901:939  echoBalances[msg.sender] += echoAmount */\n      dup3\n      dup3\n      sload\n      tag_137\n      swap2\n      swap1\n      tag_138\n      jump\t// in\n    tag_137:\n      swap3\n      pop\n      pop\n      dup2\n      swap1\n      sstore\n      pop\n        /* \"contracts/liquid.sol\":980:993  orpheusAmount */\n      dup1\n        /* \"contracts/liquid.sol\":949:964  orpheusBalances */\n      0x03\n        /* \"contracts/liquid.sol\":949:976  orpheusBalances[msg.sender] */\n      0x00\n        /* \"contracts/liquid.sol\":965:975  msg.sender */\n      caller\n        /* \"contracts/liquid.sol\":949:976  orpheusBalances[msg.sender] */\n      0xffffffffffffffffffffffffffffffffffffffff\n      and\n      0xffffffffffffffffffffffffffffffffffffffff\n      and\n      dup2\n      mstore\n      0x20\n      add\n      swap1\n      dup2\n      mstore\n      0x20\n      add\n      0x00\n      keccak256\n      0x00\n        /* \"contracts/liquid.sol\":949:993  orpheusBalances[msg.sender] += orpheusAmount */\n      dup3\n      dup3\n      sload\n      tag_139\n      swap2\n      swap1\n      tag_138\n      jump\t// in\n    tag_139:\n      swap3\n      pop\n      pop\n      dup2\n      swap1\n      sstore\n      pop\n        /* \"contracts/liquid.sol\":1016:1026  echoAmount */\n      dup2\n        /* \"contracts/liquid.sol\":1003:1012  totalEcho */\n      0x04\n      0x00\n        /* \"contracts/liquid.sol\":1003:1026  totalEcho += echoAmount */\n      dup3\n      dup3\n      sload\n      tag_140\n      swap2\n      swap1\n      tag_138\n      jump\t// in\n    tag_140:\n      swap3\n      pop\n      pop\n      dup2\n      swap1\n      sstore\n      pop\n        /* \"contracts/liquid.sol\":1052:1065  orpheusAmount */\n      dup1\n        /* \"contracts/liquid.sol\":1036:1048  totalOrpheus */\n      0x05\n      0x00\n        /* \"contracts/liquid.sol\":1036:1065  totalOrpheus += orpheusAmount */\n      dup3\n      dup3\n      sload\n      tag_141\n      swap2\n      swap1\n      tag_138\n      jump\t// in\n    tag_141:\n      swap3\n      pop\n      pop\n      dup2\n      swap1\n      sstore\n      pop\n        /* \"contracts/liquid.sol\":1075:1085  uint share */\n      0x00\n        /* \"contracts/liquid.sol\":1118:1119  0 */\n      dup1\n        /* \"contracts/liquid.sol\":1103:1114  totalShares */\n      sload(0x06)\n        /* \"contracts/liquid.sol\":1103:1119  totalShares == 0 */\n      eq\n        /* \"contracts/liquid.sol\":1099:1306  if (totalShares == 0) {... */\n      iszero\n      tag_142\n      jumpi\n        /* \"contracts/liquid.sol\":1143:1175  sqrt(echoAmount * orpheusAmount) */\n      tag_143\n        /* \"contracts/liquid.sol\":1161:1174  orpheusAmount */\n      dup3\n        /* \"contracts/liquid.sol\":1148:1158  echoAmount */\n      dup5\n        /* \"contracts/liquid.sol\":1148:1174  echoAmount * orpheusAmount */\n      tag_144\n      swap2\n      swap1\n      tag_69\n      jump\t// in\n    tag_144:\n        /* \"contracts/liquid.sol\":1143:1147  sqrt */\n      tag_145\n        /* \"contracts/liquid.sol\":1143:1175  sqrt(echoAmount * orpheusAmount) */\n      jump\t// in\n    tag_143:\n        /* \"contracts/liquid.sol\":1135:1175  share = sqrt(echoAmount * orpheusAmount) */\n      swap1\n      pop\n        /* \"contracts/liquid.sol\":1099:1306  if (totalShares == 0) {... */\n      jump(tag_146)\n    tag_142:\n        /* \"contracts/liquid.sol\":1265:1295  sqrt(totalEcho * totalOrpheus) */\n      tag_147\n        /* \"contracts/liquid.sol\":1282:1294  totalOrpheus */\n      sload(0x05)\n        /* \"contracts/liquid.sol\":1270:1279  totalEcho */\n      sload(0x04)\n        /* \"contracts/liquid.sol\":1270:1294  totalEcho * totalOrpheus */\n      tag_148\n      swap2\n      swap1\n      tag_69\n      jump\t// in\n    tag_148:\n        /* \"contracts/liquid.sol\":1265:1269  sqrt */\n      tag_145\n        /* \"contracts/liquid.sol\":1265:1295  sqrt(totalEcho * totalOrpheus) */\n      jump\t// in\n    tag_147:\n        /* \"contracts/liquid.sol\":1250:1261  totalShares */\n      sload(0x06)\n        /* \"contracts/liquid.sol\":1215:1247  sqrt(echoAmount * orpheusAmount) */\n      tag_149\n        /* \"contracts/liquid.sol\":1233:1246  orpheusAmount */\n      dup5\n        /* \"contracts/liquid.sol\":1220:1230  echoAmount */\n      dup7\n        /* \"contracts/liquid.sol\":1220:1246  echoAmount * orpheusAmount */\n      tag_150\n      swap2\n      swap1\n      tag_69\n      jump\t// in\n    tag_150:\n        /* \"contracts/liquid.sol\":1215:1219  sqrt */\n      tag_145\n        /* \"contracts/liquid.sol\":1215:1247  sqrt(echoAmount * orpheusAmount) */\n      jump\t// in\n    tag_149:\n        /* \"contracts/liquid.sol\":1215:1261  sqrt(echoAmount * orpheusAmount) * totalShares */\n      tag_151\n      swap2\n      swap1\n      tag_69\n      jump\t// in\n    tag_151:\n        /* \"contracts/liquid.sol\":1214:1295  (sqrt(echoAmount * orpheusAmount) * totalShares) / sqrt(totalEcho * totalOrpheus) */\n      tag_152\n      swap2\n      swap1\n      tag_71\n      jump\t// in\n    tag_152:\n        /* \"contracts/liquid.sol\":1206:1295  share = (sqrt(echoAmount * orpheusAmount) * totalShares) / sqrt(totalEcho * totalOrpheus) */\n      swap1\n      pop\n        /* \"contracts/liquid.sol\":1099:1306  if (totalShares == 0) {... */\n    tag_146:\n        /* \"contracts/liquid.sol\":1337:1342  share */\n      dup1\n        /* \"contracts/liquid.sol\":1315:1321  shares */\n      0x07\n        /* \"contracts/liquid.sol\":1315:1333  shares[msg.sender] */\n      0x00\n        /* \"contracts/liquid.sol\":1322:1332  msg.sender */\n      caller\n        /* \"contracts/liquid.sol\":1315:1333  shares[msg.sender] */\n      0xffffffffffffffffffffffffffffffffffffffff\n      and\n      0xffffffffffffffffffffffffffffffffffffffff\n      and\n      dup2\n      mstore\n      0x20\n      add\n      swap1\n      dup2\n      mstore\n      0x20\n      add\n      0x00\n      keccak256\n      0x00\n        /* \"contracts/liquid.sol\":1315:1342  shares[msg.sender] += share */\n      dup3\n      dup3\n      sload\n      tag_153\n      swap2\n      swap1\n      tag_138\n      jump\t// in\n    tag_153:\n      swap3\n      pop\n      pop\n      dup2\n      swap1\n      sstore\n      pop\n        /* \"contracts/liquid.sol\":1367:1372  share */\n      dup1\n        /* \"contracts/liquid.sol\":1352:1363  totalShares */\n      0x06\n      0x00\n        /* \"contracts/liquid.sol\":1352:1372  totalShares += share */\n      dup3\n      dup3\n      sload\n      tag_154\n      swap2\n      swap1\n      tag_138\n      jump\t// in\n    tag_154:\n      swap3\n      pop\n      pop\n      dup2\n      swap1\n      sstore\n      pop\n        /* \"contracts/liquid.sol\":661:1379  {... */\n      pop\n        /* \"contracts/liquid.sol\":593:1379  function addLiquidity(uint echoAmount, uint orpheusAmount) external {... */\n      pop\n      pop\n      jump\t// out\n        /* \"contracts/liquid.sol\":394:432  mapping(address => uint) public shares */\n    tag_50:\n      mstore(0x20, 0x07)\n      dup1\n      0x00\n      mstore\n      keccak256(0x00, 0x40)\n      0x00\n      swap2\n      pop\n      swap1\n      pop\n      sload\n      dup2\n      jump\t// out\n        /* \"contracts/liquid.sol\":144:167  IERC20 public echoToken */\n    tag_53:\n      0x00\n      dup1\n      sload\n      swap1\n      0x0100\n      exp\n      swap1\n      div\n      0xffffffffffffffffffffffffffffffffffffffff\n      and\n      dup2\n      jump\t// out\n        /* \"contracts/liquid.sol\":2781:2972  function sqrt(uint x) internal pure returns (uint y) {... */\n    tag_145:\n        /* \"contracts/liquid.sol\":2826:2832  uint y */\n      0x00\n        /* \"contracts/liquid.sol\":2844:2850  uint z */\n      dup1\n        /* \"contracts/liquid.sol\":2863:2864  2 */\n      0x02\n        /* \"contracts/liquid.sol\":2858:2859  1 */\n      0x01\n        /* \"contracts/liquid.sol\":2854:2855  x */\n      dup5\n        /* \"contracts/liquid.sol\":2854:2859  x + 1 */\n      tag_156\n      swap2\n      swap1\n      tag_138\n      jump\t// in\n    tag_156:\n        /* \"contracts/liquid.sol\":2853:2864  (x + 1) / 2 */\n      tag_157\n      swap2\n      swap1\n      tag_71\n      jump\t// in\n    tag_157:\n        /* \"contracts/liquid.sol\":2844:2864  uint z = (x + 1) / 2 */\n      swap1\n      pop\n        /* \"contracts/liquid.sol\":2878:2879  x */\n      dup3\n        /* \"contracts/liquid.sol\":2874:2879  y = x */\n      swap2\n      pop\n        /* \"contracts/liquid.sol\":2889:2966  while (z < y) {... */\n    tag_158:\n        /* \"contracts/liquid.sol\":2900:2901  y */\n      dup2\n        /* \"contracts/liquid.sol\":2896:2897  z */\n      dup2\n        /* \"contracts/liquid.sol\":2896:2901  z < y */\n      lt\n        /* \"contracts/liquid.sol\":2889:2966  while (z < y) {... */\n      iszero\n      tag_159\n      jumpi\n        /* \"contracts/liquid.sol\":2921:2922  z */\n      dup1\n        /* \"contracts/liquid.sol\":2917:2922  y = z */\n      swap2\n      pop\n        /* \"contracts/liquid.sol\":2954:2955  2 */\n      0x02\n        /* \"contracts/liquid.sol\":2949:2950  z */\n      dup2\n        /* \"contracts/liquid.sol\":2945:2946  z */\n      dup3\n        /* \"contracts/liquid.sol\":2941:2942  x */\n      dup6\n        /* \"contracts/liquid.sol\":2941:2946  x / z */\n      tag_160\n      swap2\n      swap1\n      tag_71\n      jump\t// in\n    tag_160:\n        /* \"contracts/liquid.sol\":2941:2950  x / z + z */\n      tag_161\n      swap2\n      swap1\n      tag_138\n      jump\t// in\n    tag_161:\n        /* \"contracts/liquid.sol\":2940:2955  (x / z + z) / 2 */\n      tag_162\n      swap2\n      swap1\n      tag_71\n      jump\t// in\n    tag_162:\n        /* \"contracts/liquid.sol\":2936:2955  z = (x / z + z) / 2 */\n      swap1\n      pop\n        /* \"contracts/liquid.sol\":2889:2966  while (z < y) {... */\n      jump(tag_158)\n    tag_159:\n        /* \"contracts/liquid.sol\":2834:2972  {... */\n      pop\n        /* \"contracts/liquid.sol\":2781:2972  function sqrt(uint x) internal pure returns (uint y) {... */\n      swap2\n      swap1\n      pop\n      jump\t// out\n        /* \"#utility.yul\":7:146   */\n    tag_164:\n        /* \"#utility.yul\":53:58   */\n      0x00\n        /* \"#utility.yul\":91:97   */\n      dup2\n        /* \"#utility.yul\":78:98   */\n      calldataload\n        /* \"#utility.yul\":69:98   */\n      swap1\n      pop\n        /* \"#utility.yul\":107:140   */\n      tag_166\n        /* \"#utility.yul\":134:139   */\n      dup2\n        /* \"#utility.yul\":107:140   */\n      tag_167\n      jump\t// in\n    tag_166:\n        /* \"#utility.yul\":7:146   */\n      swap3\n      swap2\n      pop\n      pop\n      jump\t// out\n        /* \"#utility.yul\":152:289   */\n    tag_168:\n        /* \"#utility.yul\":206:211   */\n      0x00\n        /* \"#utility.yul\":237:243   */\n      dup2\n        /* \"#utility.yul\":231:244   */\n      mload\n        /* \"#utility.yul\":222:244   */\n      swap1\n      pop\n        /* \"#utility.yul\":253:283   */\n      tag_170\n        /* \"#utility.yul\":277:282   */\n      dup2\n        /* \"#utility.yul\":253:283   */\n      tag_171\n      jump\t// in\n    tag_170:\n        /* \"#utility.yul\":152:289   */\n      swap3\n      swap2\n      pop\n      pop\n      jump\t// out\n        /* \"#utility.yul\":295:434   */\n    tag_172:\n        /* \"#utility.yul\":341:346   */\n      0x00\n        /* \"#utility.yul\":379:385   */\n      dup2\n        /* \"#utility.yul\":366:386   */\n      calldataload\n        /* \"#utility.yul\":357:386   */\n      swap1\n      pop\n        /* \"#utility.yul\":395:428   */\n      tag_174\n        /* \"#utility.yul\":422:427   */\n      dup2\n        /* \"#utility.yul\":395:428   */\n      tag_175\n      jump\t// in\n    tag_174:\n        /* \"#utility.yul\":295:434   */\n      swap3\n      swap2\n      pop\n      pop\n      jump\t// out\n        /* \"#utility.yul\":440:583   */\n    tag_176:\n        /* \"#utility.yul\":497:502   */\n      0x00\n        /* \"#utility.yul\":528:534   */\n      dup2\n        /* \"#utility.yul\":522:535   */\n      mload\n        /* \"#utility.yul\":513:535   */\n      swap1\n      pop\n        /* \"#utility.yul\":544:577   */\n      tag_178\n        /* \"#utility.yul\":571:576   */\n      dup2\n        /* \"#utility.yul\":544:577   */\n      tag_175\n      jump\t// in\n    tag_178:\n        /* \"#utility.yul\":440:583   */\n      swap3\n      swap2\n      pop\n      pop\n      jump\t// out\n        /* \"#utility.yul\":589:918   */\n    tag_21:\n        /* \"#utility.yul\":648:654   */\n      0x00\n        /* \"#utility.yul\":697:699   */\n      0x20\n        /* \"#utility.yul\":685:694   */\n      dup3\n        /* \"#utility.yul\":676:683   */\n      dup5\n        /* \"#utility.yul\":672:695   */\n      sub\n        /* \"#utility.yul\":668:700   */\n      slt\n        /* \"#utility.yul\":665:784   */\n      iszero\n      tag_180\n      jumpi\n        /* \"#utility.yul\":703:782   */\n      tag_181\n      tag_182\n      jump\t// in\n    tag_181:\n        /* \"#utility.yul\":665:784   */\n    tag_180:\n        /* \"#utility.yul\":823:824   */\n      0x00\n        /* \"#utility.yul\":848:901   */\n      tag_183\n        /* \"#utility.yul\":893:900   */\n      dup5\n        /* \"#utility.yul\":884:890   */\n      dup3\n        /* \"#utility.yul\":873:882   */\n      dup6\n        /* \"#utility.yul\":869:891   */\n      add\n        /* \"#utility.yul\":848:901   */\n      tag_164\n      jump\t// in\n    tag_183:\n        /* \"#utility.yul\":838:901   */\n      swap2\n      pop\n        /* \"#utility.yul\":794:911   */\n      pop\n        /* \"#utility.yul\":589:918   */\n      swap3\n      swap2\n      pop\n      pop\n      jump\t// out\n        /* \"#utility.yul\":924:1269   */\n    tag_87:\n        /* \"#utility.yul\":991:997   */\n      0x00\n        /* \"#utility.yul\":1040:1042   */\n      0x20\n        /* \"#utility.yul\":1028:1037   */\n      dup3\n        /* \"#utility.yul\":1019:1026   */\n      dup5\n        /* \"#utility.yul\":1015:1038   */\n      sub\n        /* \"#utility.yul\":1011:1043   */\n      slt\n        /* \"#utility.yul\":1008:1127   */\n      iszero\n      tag_185\n      jumpi\n        /* \"#utility.yul\":1046:1125   */\n      tag_186\n      tag_182\n      jump\t// in\n    tag_186:\n        /* \"#utility.yul\":1008:1127   */\n    tag_185:\n        /* \"#utility.yul\":1166:1167   */\n      0x00\n        /* \"#utility.yul\":1191:1252   */\n      tag_187\n        /* \"#utility.yul\":1244:1251   */\n      dup5\n        /* \"#utility.yul\":1235:1241   */\n      dup3\n        /* \"#utility.yul\":1224:1233   */\n      dup6\n        /* \"#utility.yul\":1220:1242   */\n      add\n        /* \"#utility.yul\":1191:1252   */\n      tag_168\n      jump\t// in\n    tag_187:\n        /* \"#utility.yul\":1181:1252   */\n      swap2\n      pop\n        /* \"#utility.yul\":1137:1262   */\n      pop\n        /* \"#utility.yul\":924:1269   */\n      swap3\n      swap2\n      pop\n      pop\n      jump\t// out\n        /* \"#utility.yul\":1275:1604   */\n    tag_42:\n        /* \"#utility.yul\":1334:1340   */\n      0x00\n        /* \"#utility.yul\":1383:1385   */\n      0x20\n        /* \"#utility.yul\":1371:1380   */\n      dup3\n        /* \"#utility.yul\":1362:1369   */\n      dup5\n        /* \"#utility.yul\":1358:1381   */\n      sub\n        /* \"#utility.yul\":1354:1386   */\n      slt\n        /* \"#utility.yul\":1351:1470   */\n      iszero\n      tag_189\n      jumpi\n        /* \"#utility.yul\":1389:1468   */\n      tag_190\n      tag_182\n      jump\t// in\n    tag_190:\n        /* \"#utility.yul\":1351:1470   */\n    tag_189:\n        /* \"#utility.yul\":1509:1510   */\n      0x00\n        /* \"#utility.yul\":1534:1587   */\n      tag_191\n        /* \"#utility.yul\":1579:1586   */\n      dup5\n        /* \"#utility.yul\":1570:1576   */\n      dup3\n        /* \"#utility.yul\":1559:1568   */\n      dup6\n        /* \"#utility.yul\":1555:1577   */\n      add\n        /* \"#utility.yul\":1534:1587   */\n      tag_172\n      jump\t// in\n    tag_191:\n        /* \"#utility.yul\":1524:1587   */\n      swap2\n      pop\n        /* \"#utility.yul\":1480:1597   */\n      pop\n        /* \"#utility.yul\":1275:1604   */\n      swap3\n      swap2\n      pop\n      pop\n      jump\t// out\n        /* \"#utility.yul\":1610:1961   */\n    tag_62:\n        /* \"#utility.yul\":1680:1686   */\n      0x00\n        /* \"#utility.yul\":1729:1731   */\n      0x20\n        /* \"#utility.yul\":1717:1726   */\n      dup3\n        /* \"#utility.yul\":1708:1715   */\n      dup5\n        /* \"#utility.yul\":1704:1727   */\n      sub\n        /* \"#utility.yul\":1700:1732   */\n      slt\n        /* \"#utility.yul\":1697:1816   */\n      iszero\n      tag_193\n      jumpi\n        /* \"#utility.yul\":1735:1814   */\n      tag_194\n      tag_182\n      jump\t// in\n    tag_194:\n        /* \"#utility.yul\":1697:1816   */\n    tag_193:\n        /* \"#utility.yul\":1855:1856   */\n      0x00\n        /* \"#utility.yul\":1880:1944   */\n      tag_195\n        /* \"#utility.yul\":1936:1943   */\n      dup5\n        /* \"#utility.yul\":1927:1933   */\n      dup3\n        /* \"#utility.yul\":1916:1925   */\n      dup6\n        /* \"#utility.yul\":1912:1934   */\n      add\n        /* \"#utility.yul\":1880:1944   */\n      tag_176\n      jump\t// in\n    tag_195:\n        /* \"#utility.yul\":1870:1944   */\n      swap2\n      pop\n        /* \"#utility.yul\":1826:1954   */\n      pop\n        /* \"#utility.yul\":1610:1961   */\n      swap3\n      swap2\n      pop\n      pop\n      jump\t// out\n        /* \"#utility.yul\":1967:2441   */\n    tag_46:\n        /* \"#utility.yul\":2035:2041   */\n      0x00\n        /* \"#utility.yul\":2043:2049   */\n      dup1\n        /* \"#utility.yul\":2092:2094   */\n      0x40\n        /* \"#utility.yul\":2080:2089   */\n      dup4\n        /* \"#utility.yul\":2071:2078   */\n      dup6\n        /* \"#utility.yul\":2067:2090   */\n      sub\n        /* \"#utility.yul\":2063:2095   */\n      slt\n        /* \"#utility.yul\":2060:2179   */\n      iszero\n      tag_197\n      jumpi\n        /* \"#utility.yul\":2098:2177   */\n      tag_198\n      tag_182\n      jump\t// in\n    tag_198:\n        /* \"#utility.yul\":2060:2179   */\n    tag_197:\n        /* \"#utility.yul\":2218:2219   */\n      0x00\n        /* \"#utility.yul\":2243:2296   */\n      tag_199\n        /* \"#utility.yul\":2288:2295   */\n      dup6\n        /* \"#utility.yul\":2279:2285   */\n      dup3\n        /* \"#utility.yul\":2268:2277   */\n      dup7\n        /* \"#utility.yul\":2264:2286   */\n      add\n        /* \"#utility.yul\":2243:2296   */\n      tag_172\n      jump\t// in\n    tag_199:\n        /* \"#utility.yul\":2233:2296   */\n      swap3\n      pop\n        /* \"#utility.yul\":2189:2306   */\n      pop\n        /* \"#utility.yul\":2345:2347   */\n      0x20\n        /* \"#utility.yul\":2371:2424   */\n      tag_200\n        /* \"#utility.yul\":2416:2423   */\n      dup6\n        /* \"#utility.yul\":2407:2413   */\n      dup3\n        /* \"#utility.yul\":2396:2405   */\n      dup7\n        /* \"#utility.yul\":2392:2414   */\n      add\n        /* \"#utility.yul\":2371:2424   */\n      tag_172\n      jump\t// in\n    tag_200:\n        /* \"#utility.yul\":2361:2424   */\n      swap2\n      pop\n        /* \"#utility.yul\":2316:2434   */\n      pop\n        /* \"#utility.yul\":1967:2441   */\n      swap3\n      pop\n      swap3\n      swap1\n      pop\n      jump\t// out\n        /* \"#utility.yul\":2447:2565   */\n    tag_201:\n        /* \"#utility.yul\":2534:2558   */\n      tag_203\n        /* \"#utility.yul\":2552:2557   */\n      dup2\n        /* \"#utility.yul\":2534:2558   */\n      tag_204\n      jump\t// in\n    tag_203:\n        /* \"#utility.yul\":2529:2532   */\n      dup3\n        /* \"#utility.yul\":2522:2559   */\n      mstore\n        /* \"#utility.yul\":2447:2565   */\n      pop\n      pop\n      jump\t// out\n        /* \"#utility.yul\":2571:2728   */\n    tag_205:\n        /* \"#utility.yul\":2671:2721   */\n      tag_207\n        /* \"#utility.yul\":2715:2720   */\n      dup2\n        /* \"#utility.yul\":2671:2721   */\n      tag_208\n      jump\t// in\n    tag_207:\n        /* \"#utility.yul\":2666:2669   */\n      dup3\n        /* \"#utility.yul\":2659:2722   */\n      mstore\n        /* \"#utility.yul\":2571:2728   */\n      pop\n      pop\n      jump\t// out\n        /* \"#utility.yul\":2734:3100   */\n    tag_209:\n        /* \"#utility.yul\":2876:2879   */\n      0x00\n        /* \"#utility.yul\":2897:2964   */\n      tag_211\n        /* \"#utility.yul\":2961:2963   */\n      0x14\n        /* \"#utility.yul\":2956:2959   */\n      dup4\n        /* \"#utility.yul\":2897:2964   */\n      tag_212\n      jump\t// in\n    tag_211:\n        /* \"#utility.yul\":2890:2964   */\n      swap2\n      pop\n        /* \"#utility.yul\":2973:3066   */\n      tag_213\n        /* \"#utility.yul\":3062:3065   */\n      dup3\n        /* \"#utility.yul\":2973:3066   */\n      tag_214\n      jump\t// in\n    tag_213:\n        /* \"#utility.yul\":3091:3093   */\n      0x20\n        /* \"#utility.yul\":3086:3089   */\n      dup3\n        /* \"#utility.yul\":3082:3094   */\n      add\n        /* \"#utility.yul\":3075:3094   */\n      swap1\n      pop\n        /* \"#utility.yul\":2734:3100   */\n      swap2\n      swap1\n      pop\n      jump\t// out\n        /* \"#utility.yul\":3106:3472   */\n    tag_215:\n        /* \"#utility.yul\":3248:3251   */\n      0x00\n        /* \"#utility.yul\":3269:3336   */\n      tag_217\n        /* \"#utility.yul\":3333:3335   */\n      0x18\n        /* \"#utility.yul\":3328:3331   */\n      dup4\n        /* \"#utility.yul\":3269:3336   */\n      tag_212\n      jump\t// in\n    tag_217:\n        /* \"#utility.yul\":3262:3336   */\n      swap2\n      pop\n        /* \"#utility.yul\":3345:3438   */\n      tag_218\n        /* \"#utility.yul\":3434:3437   */\n      dup3\n        /* \"#utility.yul\":3345:3438   */\n      tag_219\n      jump\t// in\n    tag_218:\n        /* \"#utility.yul\":3463:3465   */\n      0x20\n        /* \"#utility.yul\":3458:3461   */\n      dup3\n        /* \"#utility.yul\":3454:3466   */\n      add\n        /* \"#utility.yul\":3447:3466   */\n      swap1\n      pop\n        /* \"#utility.yul\":3106:3472   */\n      swap2\n      swap1\n      pop\n      jump\t// out\n        /* \"#utility.yul\":3478:3596   */\n    tag_220:\n        /* \"#utility.yul\":3565:3589   */\n      tag_222\n        /* \"#utility.yul\":3583:3588   */\n      dup2\n        /* \"#utility.yul\":3565:3589   */\n      tag_223\n      jump\t// in\n    tag_222:\n        /* \"#utility.yul\":3560:3563   */\n      dup3\n        /* \"#utility.yul\":3553:3590   */\n      mstore\n        /* \"#utility.yul\":3478:3596   */\n      pop\n      pop\n      jump\t// out\n        /* \"#utility.yul\":3602:3824   */\n    tag_57:\n        /* \"#utility.yul\":3695:3699   */\n      0x00\n        /* \"#utility.yul\":3733:3735   */\n      0x20\n        /* \"#utility.yul\":3722:3731   */\n      dup3\n        /* \"#utility.yul\":3718:3736   */\n      add\n        /* \"#utility.yul\":3710:3736   */\n      swap1\n      pop\n        /* \"#utility.yul\":3746:3817   */\n      tag_225\n        /* \"#utility.yul\":3814:3815   */\n      0x00\n        /* \"#utility.yul\":3803:3812   */\n      dup4\n        /* \"#utility.yul\":3799:3816   */\n      add\n        /* \"#utility.yul\":3790:3796   */\n      dup5\n        /* \"#utility.yul\":3746:3817   */\n      tag_201\n      jump\t// in\n    tag_225:\n        /* \"#utility.yul\":3602:3824   */\n      swap3\n      swap2\n      pop\n      pop\n      jump\t// out\n        /* \"#utility.yul\":3830:4272   */\n    tag_127:\n        /* \"#utility.yul\":3979:3983   */\n      0x00\n        /* \"#utility.yul\":4017:4019   */\n      0x60\n        /* \"#utility.yul\":4006:4015   */\n      dup3\n        /* \"#utility.yul\":4002:4020   */\n      add\n        /* \"#utility.yul\":3994:4020   */\n      swap1\n      pop\n        /* \"#utility.yul\":4030:4101   */\n      tag_227\n        /* \"#utility.yul\":4098:4099   */\n      0x00\n        /* \"#utility.yul\":4087:4096   */\n      dup4\n        /* \"#utility.yul\":4083:4100   */\n      add\n        /* \"#utility.yul\":4074:4080   */\n      dup7\n        /* \"#utility.yul\":4030:4101   */\n      tag_201\n      jump\t// in\n    tag_227:\n        /* \"#utility.yul\":4111:4183   */\n      tag_228\n        /* \"#utility.yul\":4179:4181   */\n      0x20\n        /* \"#utility.yul\":4168:4177   */\n      dup4\n        /* \"#utility.yul\":4164:4182   */\n      add\n        /* \"#utility.yul\":4155:4161   */\n      dup6\n        /* \"#utility.yul\":4111:4183   */\n      tag_201\n      jump\t// in\n    tag_228:\n        /* \"#utility.yul\":4193:4265   */\n      tag_229\n        /* \"#utility.yul\":4261:4263   */\n      0x40\n        /* \"#utility.yul\":4250:4259   */\n      dup4\n        /* \"#utility.yul\":4246:4264   */\n      add\n        /* \"#utility.yul\":4237:4243   */\n      dup5\n        /* \"#utility.yul\":4193:4265   */\n      tag_220\n      jump\t// in\n    tag_229:\n        /* \"#utility.yul\":3830:4272   */\n      swap5\n      swap4\n      pop\n      pop\n      pop\n      pop\n      jump\t// out\n        /* \"#utility.yul\":4278:4610   */\n    tag_82:\n        /* \"#utility.yul\":4399:4403   */\n      0x00\n        /* \"#utility.yul\":4437:4439   */\n      0x40\n        /* \"#utility.yul\":4426:4435   */\n      dup3\n        /* \"#utility.yul\":4422:4440   */\n      add\n        /* \"#utility.yul\":4414:4440   */\n      swap1\n      pop\n        /* \"#utility.yul\":4450:4521   */\n      tag_231\n        /* \"#utility.yul\":4518:4519   */\n      0x00\n        /* \"#utility.yul\":4507:4516   */\n      dup4\n        /* \"#utility.yul\":4503:4520   */\n      add\n        /* \"#utility.yul\":4494:4500   */\n      dup6\n        /* \"#utility.yul\":4450:4521   */\n      tag_201\n      jump\t// in\n    tag_231:\n        /* \"#utility.yul\":4531:4603   */\n      tag_232\n        /* \"#utility.yul\":4599:4601   */\n      0x20\n        /* \"#utility.yul\":4588:4597   */\n      dup4\n        /* \"#utility.yul\":4584:4602   */\n      add\n        /* \"#utility.yul\":4575:4581   */\n      dup5\n        /* \"#utility.yul\":4531:4603   */\n      tag_220\n      jump\t// in\n    tag_232:\n        /* \"#utility.yul\":4278:4610   */\n      swap4\n      swap3\n      pop\n      pop\n      pop\n      jump\t// out\n        /* \"#utility.yul\":4616:4864   */\n    tag_18:\n        /* \"#utility.yul\":4722:4726   */\n      0x00\n        /* \"#utility.yul\":4760:4762   */\n      0x20\n        /* \"#utility.yul\":4749:4758   */\n      dup3\n        /* \"#utility.yul\":4745:4763   */\n      add\n        /* \"#utility.yul\":4737:4763   */\n      swap1\n      pop\n        /* \"#utility.yul\":4773:4857   */\n      tag_234\n        /* \"#utility.yul\":4854:4855   */\n      0x00\n        /* \"#utility.yul\":4843:4852   */\n      dup4\n        /* \"#utility.yul\":4839:4856   */\n      add\n        /* \"#utility.yul\":4830:4836   */\n      dup5\n        /* \"#utility.yul\":4773:4857   */\n      tag_205\n      jump\t// in\n    tag_234:\n        /* \"#utility.yul\":4616:4864   */\n      swap3\n      swap2\n      pop\n      pop\n      jump\t// out\n        /* \"#utility.yul\":4870:5289   */\n    tag_99:\n        /* \"#utility.yul\":5036:5040   */\n      0x00\n        /* \"#utility.yul\":5074:5076   */\n      0x20\n        /* \"#utility.yul\":5063:5072   */\n      dup3\n        /* \"#utility.yul\":5059:5077   */\n      add\n        /* \"#utility.yul\":5051:5077   */\n      swap1\n      pop\n        /* \"#utility.yul\":5123:5132   */\n      dup2\n        /* \"#utility.yul\":5117:5121   */\n      dup2\n        /* \"#utility.yul\":5113:5133   */\n      sub\n        /* \"#utility.yul\":5109:5110   */\n      0x00\n        /* \"#utility.yul\":5098:5107   */\n      dup4\n        /* \"#utility.yul\":5094:5111   */\n      add\n        /* \"#utility.yul\":5087:5134   */\n      mstore\n        /* \"#utility.yul\":5151:5282   */\n      tag_236\n        /* \"#utility.yul\":5277:5281   */\n      dup2\n        /* \"#utility.yul\":5151:5282   */\n      tag_209\n      jump\t// in\n    tag_236:\n        /* \"#utility.yul\":5143:5282   */\n      swap1\n      pop\n        /* \"#utility.yul\":4870:5289   */\n      swap2\n      swap1\n      pop\n      jump\t// out\n        /* \"#utility.yul\":5295:5714   */\n    tag_125:\n        /* \"#utility.yul\":5461:5465   */\n      0x00\n        /* \"#utility.yul\":5499:5501   */\n      0x20\n        /* \"#utility.yul\":5488:5497   */\n      dup3\n        /* \"#utility.yul\":5484:5502   */\n      add\n        /* \"#utility.yul\":5476:5502   */\n      swap1\n      pop\n        /* \"#utility.yul\":5548:5557   */\n      dup2\n        /* \"#utility.yul\":5542:5546   */\n      dup2\n        /* \"#utility.yul\":5538:5558   */\n      sub\n        /* \"#utility.yul\":5534:5535   */\n      0x00\n        /* \"#utility.yul\":5523:5532   */\n      dup4\n        /* \"#utility.yul\":5519:5536   */\n      add\n        /* \"#utility.yul\":5512:5559   */\n      mstore\n        /* \"#utility.yul\":5576:5707   */\n      tag_238\n        /* \"#utility.yul\":5702:5706   */\n      dup2\n        /* \"#utility.yul\":5576:5707   */\n      tag_215\n      jump\t// in\n    tag_238:\n        /* \"#utility.yul\":5568:5707   */\n      swap1\n      pop\n        /* \"#utility.yul\":5295:5714   */\n      swap2\n      swap1\n      pop\n      jump\t// out\n        /* \"#utility.yul\":5720:5942   */\n    tag_24:\n        /* \"#utility.yul\":5813:5817   */\n      0x00\n        /* \"#utility.yul\":5851:5853   */\n      0x20\n        /* \"#utility.yul\":5840:5849   */\n      dup3\n        /* \"#utility.yul\":5836:5854   */\n      add\n        /* \"#utility.yul\":5828:5854   */\n      swap1\n      pop\n        /* \"#utility.yul\":5864:5935   */\n      tag_240\n        /* \"#utility.yul\":5932:5933   */\n      0x00\n        /* \"#utility.yul\":5921:5930   */\n      dup4\n        /* \"#utility.yul\":5917:5934   */\n      add\n        /* \"#utility.yul\":5908:5914   */\n      dup5\n        /* \"#utility.yul\":5864:5935   */\n      tag_220\n      jump\t// in\n    tag_240:\n        /* \"#utility.yul\":5720:5942   */\n      swap3\n      swap2\n      pop\n      pop\n      jump\t// out\n        /* \"#utility.yul\":6029:6198   */\n    tag_212:\n        /* \"#utility.yul\":6113:6124   */\n      0x00\n        /* \"#utility.yul\":6147:6153   */\n      dup3\n        /* \"#utility.yul\":6142:6145   */\n      dup3\n        /* \"#utility.yul\":6135:6154   */\n      mstore\n        /* \"#utility.yul\":6187:6191   */\n      0x20\n        /* \"#utility.yul\":6182:6185   */\n      dup3\n        /* \"#utility.yul\":6178:6192   */\n      add\n        /* \"#utility.yul\":6163:6192   */\n      swap1\n      pop\n        /* \"#utility.yul\":6029:6198   */\n      swap3\n      swap2\n      pop\n      pop\n      jump\t// out\n        /* \"#utility.yul\":6204:6509   */\n    tag_138:\n        /* \"#utility.yul\":6244:6247   */\n      0x00\n        /* \"#utility.yul\":6263:6283   */\n      tag_245\n        /* \"#utility.yul\":6281:6282   */\n      dup3\n        /* \"#utility.yul\":6263:6283   */\n      tag_223\n      jump\t// in\n    tag_245:\n        /* \"#utility.yul\":6258:6283   */\n      swap2\n      pop\n        /* \"#utility.yul\":6297:6317   */\n      tag_246\n        /* \"#utility.yul\":6315:6316   */\n      dup4\n        /* \"#utility.yul\":6297:6317   */\n      tag_223\n      jump\t// in\n    tag_246:\n        /* \"#utility.yul\":6292:6317   */\n      swap3\n      pop\n        /* \"#utility.yul\":6451:6452   */\n      dup3\n        /* \"#utility.yul\":6383:6449   */\n      0xffffffffffffffffffffffffffffffffffffffffffffffffffffffffffffffff\n        /* \"#utility.yul\":6379:6453   */\n      sub\n        /* \"#utility.yul\":6376:6377   */\n      dup3\n        /* \"#utility.yul\":6373:6454   */\n      gt\n        /* \"#utility.yul\":6370:6477   */\n      iszero\n      tag_247\n      jumpi\n        /* \"#utility.yul\":6457:6475   */\n      tag_248\n      tag_249\n      jump\t// in\n    tag_248:\n        /* \"#utility.yul\":6370:6477   */\n    tag_247:\n        /* \"#utility.yul\":6501:6502   */\n      dup3\n        /* \"#utility.yul\":6498:6499   */\n      dup3\n        /* \"#utility.yul\":6494:6503   */\n      add\n        /* \"#utility.yul\":6487:6503   */\n      swap1\n      pop\n        /* \"#utility.yul\":6204:6509   */\n      swap3\n      swap2\n      pop\n      pop\n      jump\t// out\n        /* \"#utility.yul\":6515:6700   */\n    tag_71:\n        /* \"#utility.yul\":6555:6556   */\n      0x00\n        /* \"#utility.yul\":6572:6592   */\n      tag_251\n        /* \"#utility.yul\":6590:6591   */\n      dup3\n        /* \"#utility.yul\":6572:6592   */\n      tag_223\n      jump\t// in\n    tag_251:\n        /* \"#utility.yul\":6567:6592   */\n      swap2\n      pop\n        /* \"#utility.yul\":6606:6626   */\n      tag_252\n        /* \"#utility.yul\":6624:6625   */\n      dup4\n        /* \"#utility.yul\":6606:6626   */\n      tag_223\n      jump\t// in\n    tag_252:\n        /* \"#utility.yul\":6601:6626   */\n      swap3\n      pop\n        /* \"#utility.yul\":6645:6646   */\n      dup3\n        /* \"#utility.yul\":6635:6670   */\n      tag_253\n      jumpi\n        /* \"#utility.yul\":6650:6668   */\n      tag_254\n      tag_255\n      jump\t// in\n    tag_254:\n        /* \"#utility.yul\":6635:6670   */\n    tag_253:\n        /* \"#utility.yul\":6692:6693   */\n      dup3\n        /* \"#utility.yul\":6689:6690   */\n      dup3\n        /* \"#utility.yul\":6685:6694   */\n      div\n        /* \"#utility.yul\":6680:6694   */\n      swap1\n      pop\n        /* \"#utility.yul\":6515:6700   */\n      swap3\n      swap2\n      pop\n      pop\n      jump\t// out\n        /* \"#utility.yul\":6706:7054   */\n    tag_69:\n        /* \"#utility.yul\":6746:6753   */\n      0x00\n        /* \"#utility.yul\":6769:6789   */\n      tag_257\n        /* \"#utility.yul\":6787:6788   */\n      dup3\n        /* \"#utility.yul\":6769:6789   */\n      tag_223\n      jump\t// in\n    tag_257:\n        /* \"#utility.yul\":6764:6789   */\n      swap2\n      pop\n        /* \"#utility.yul\":6803:6823   */\n      tag_258\n        /* \"#utility.yul\":6821:6822   */\n      dup4\n        /* \"#utility.yul\":6803:6823   */\n      tag_223\n      jump\t// in\n    tag_258:\n        /* \"#utility.yul\":6798:6823   */\n      swap3\n      pop\n        /* \"#utility.yul\":6991:6992   */\n      dup2\n        /* \"#utility.yul\":6923:6989   */\n      0xffffffffffffffffffffffffffffffffffffffffffffffffffffffffffffffff\n        /* \"#utility.yul\":6919:6993   */\n      div\n        /* \"#utility.yul\":6916:6917   */\n      dup4\n        /* \"#utility.yul\":6913:6994   */\n      gt\n        /* \"#utility.yul\":6908:6909   */\n      dup3\n        /* \"#utility.yul\":6901:6910   */\n      iszero\n        /* \"#utility.yul\":6894:6911   */\n      iszero\n        /* \"#utility.yul\":6890:6995   */\n      and\n        /* \"#utility.yul\":6887:7018   */\n      iszero\n      tag_259\n      jumpi\n        /* \"#utility.yul\":6998:7016   */\n      tag_260\n      tag_249\n      jump\t// in\n    tag_260:\n        /* \"#utility.yul\":6887:7018   */\n    tag_259:\n        /* \"#utility.yul\":7046:7047   */\n      dup3\n        /* \"#utility.yul\":7043:7044   */\n      dup3\n        /* \"#utility.yul\":7039:7048   */\n      mul\n        /* \"#utility.yul\":7028:7048   */\n      swap1\n      pop\n        /* \"#utility.yul\":6706:7054   */\n      swap3\n      swap2\n      pop\n      pop\n      jump\t// out\n        /* \"#utility.yul\":7060:7251   */\n    tag_105:\n        /* \"#utility.yul\":7100:7104   */\n      0x00\n        /* \"#utility.yul\":7120:7140   */\n      tag_262\n        /* \"#utility.yul\":7138:7139   */\n      dup3\n        /* \"#utility.yul\":7120:7140   */\n      tag_223\n      jump\t// in\n    tag_262:\n        /* \"#utility.yul\":7115:7140   */\n      swap2\n      pop\n        /* \"#utility.yul\":7154:7174   */\n      tag_263\n        /* \"#utility.yul\":7172:7173   */\n      dup4\n        /* \"#utility.yul\":7154:7174   */\n      tag_223\n      jump\t// in\n    tag_263:\n        /* \"#utility.yul\":7149:7174   */\n      swap3\n      pop\n        /* \"#utility.yul\":7193:7194   */\n      dup3\n        /* \"#utility.yul\":7190:7191   */\n      dup3\n        /* \"#utility.yul\":7187:7195   */\n      lt\n        /* \"#utility.yul\":7184:7218   */\n      iszero\n      tag_264\n      jumpi\n        /* \"#utility.yul\":7198:7216   */\n      tag_265\n      tag_249\n      jump\t// in\n    tag_265:\n        /* \"#utility.yul\":7184:7218   */\n    tag_264:\n        /* \"#utility.yul\":7243:7244   */\n      dup3\n        /* \"#utility.yul\":7240:7241   */\n      dup3\n        /* \"#utility.yul\":7236:7245   */\n      sub\n        /* \"#utility.yul\":7228:7245   */\n      swap1\n      pop\n        /* \"#utility.yul\":7060:7251   */\n      swap3\n      swap2\n      pop\n      pop\n      jump\t// out\n        /* \"#utility.yul\":7257:7353   */\n    tag_204:\n        /* \"#utility.yul\":7294:7301   */\n      0x00\n        /* \"#utility.yul\":7323:7347   */\n      tag_267\n        /* \"#utility.yul\":7341:7346   */\n      dup3\n        /* \"#utility.yul\":7323:7347   */\n      tag_268\n      jump\t// in\n    tag_267:\n        /* \"#utility.yul\":7312:7347   */\n      swap1\n      pop\n        /* \"#utility.yul\":7257:7353   */\n      swap2\n      swap1\n      pop\n      jump\t// out\n        /* \"#utility.yul\":7359:7449   */\n    tag_269:\n        /* \"#utility.yul\":7393:7400   */\n      0x00\n        /* \"#utility.yul\":7436:7441   */\n      dup2\n        /* \"#utility.yul\":7429:7442   */\n      iszero\n        /* \"#utility.yul\":7422:7443   */\n      iszero\n        /* \"#utility.yul\":7411:7443   */\n      swap1\n      pop\n        /* \"#utility.yul\":7359:7449   */\n      swap2\n      swap1\n      pop\n      jump\t// out\n        /* \"#utility.yul\":7455:7581   */\n    tag_268:\n        /* \"#utility.yul\":7492:7499   */\n      0x00\n        /* \"#utility.yul\":7532:7574   */\n      0xffffffffffffffffffffffffffffffffffffffff\n        /* \"#utility.yul\":7525:7530   */\n      dup3\n        /* \"#utility.yul\":7521:7575   */\n      and\n        /* \"#utility.yul\":7510:7575   */\n      swap1\n      pop\n        /* \"#utility.yul\":7455:7581   */\n      swap2\n      swap1\n      pop\n      jump\t// out\n        /* \"#utility.yul\":7587:7664   */\n    tag_223:\n        /* \"#utility.yul\":7624:7631   */\n      0x00\n        /* \"#utility.yul\":7653:7658   */\n      dup2\n        /* \"#utility.yul\":7642:7658   */\n      swap1\n      pop\n        /* \"#utility.yul\":7587:7664   */\n      swap2\n      swap1\n      pop\n      jump\t// out\n        /* \"#utility.yul\":7670:7809   */\n    tag_208:\n        /* \"#utility.yul\":7733:7742   */\n      0x00\n        /* \"#utility.yul\":7766:7803   */\n      tag_274\n        /* \"#utility.yul\":7797:7802   */\n      dup3\n        /* \"#utility.yul\":7766:7803   */\n      tag_275\n      jump\t// in\n    tag_274:\n        /* \"#utility.yul\":7753:7803   */\n      swap1\n      pop\n        /* \"#utility.yul\":7670:7809   */\n      swap2\n      swap1\n      pop\n      jump\t// out\n        /* \"#utility.yul\":7815:7941   */\n    tag_275:\n        /* \"#utility.yul\":7865:7874   */\n      0x00\n        /* \"#utility.yul\":7898:7935   */\n      tag_277\n        /* \"#utility.yul\":7929:7934   */\n      dup3\n        /* \"#utility.yul\":7898:7935   */\n      tag_278\n      jump\t// in\n    tag_277:\n        /* \"#utility.yul\":7885:7935   */\n      swap1\n      pop\n        /* \"#utility.yul\":7815:7941   */\n      swap2\n      swap1\n      pop\n      jump\t// out\n        /* \"#utility.yul\":7947:8060   */\n    tag_278:\n        /* \"#utility.yul\":7997:8006   */\n      0x00\n        /* \"#utility.yul\":8030:8054   */\n      tag_280\n        /* \"#utility.yul\":8048:8053   */\n      dup3\n        /* \"#utility.yul\":8030:8054   */\n      tag_268\n      jump\t// in\n    tag_280:\n        /* \"#utility.yul\":8017:8054   */\n      swap1\n      pop\n        /* \"#utility.yul\":7947:8060   */\n      swap2\n      swap1\n      pop\n      jump\t// out\n        /* \"#utility.yul\":8066:8299   */\n    tag_94:\n        /* \"#utility.yul\":8105:8108   */\n      0x00\n        /* \"#utility.yul\":8128:8152   */\n      tag_282\n        /* \"#utility.yul\":8146:8151   */\n      dup3\n        /* \"#utility.yul\":8128:8152   */\n      tag_223\n      jump\t// in\n    tag_282:\n        /* \"#utility.yul\":8119:8152   */\n      swap2\n      pop\n        /* \"#utility.yul\":8174:8240   */\n      0xffffffffffffffffffffffffffffffffffffffffffffffffffffffffffffffff\n        /* \"#utility.yul\":8167:8172   */\n      dup3\n        /* \"#utility.yul\":8164:8241   */\n      eq\n        /* \"#utility.yul\":8161:8264   */\n      iszero\n      tag_283\n      jumpi\n        /* \"#utility.yul\":8244:8262   */\n      tag_284\n      tag_249\n      jump\t// in\n    tag_284:\n        /* \"#utility.yul\":8161:8264   */\n    tag_283:\n        /* \"#utility.yul\":8291:8292   */\n      0x01\n        /* \"#utility.yul\":8284:8289   */\n      dup3\n        /* \"#utility.yul\":8280:8293   */\n      add\n        /* \"#utility.yul\":8273:8293   */\n      swap1\n      pop\n        /* \"#utility.yul\":8066:8299   */\n      swap2\n      swap1\n      pop\n      jump\t// out\n        /* \"#utility.yul\":8305:8485   */\n    tag_249:\n        /* \"#utility.yul\":8353:8430   */\n      0x4e487b7100000000000000000000000000000000000000000000000000000000\n        /* \"#utility.yul\":8350:8351   */\n      0x00\n        /* \"#utility.yul\":8343:8431   */\n      mstore\n        /* \"#utility.yul\":8450:8454   */\n      0x11\n        /* \"#utility.yul\":8447:8448   */\n      0x04\n        /* \"#utility.yul\":8440:8455   */\n      mstore\n        /* \"#utility.yul\":8474:8478   */\n      0x24\n        /* \"#utility.yul\":8471:8472   */\n      0x00\n        /* \"#utility.yul\":8464:8479   */\n      revert\n        /* \"#utility.yul\":8491:8671   */\n    tag_255:\n        /* \"#utility.yul\":8539:8616   */\n      0x4e487b7100000000000000000000000000000000000000000000000000000000\n        /* \"#utility.yul\":8536:8537   */\n      0x00\n        /* \"#utility.yul\":8529:8617   */\n      mstore\n        /* \"#utility.yul\":8636:8640   */\n      0x12\n        /* \"#utility.yul\":8633:8634   */\n      0x04\n        /* \"#utility.yul\":8626:8641   */\n      mstore\n        /* \"#utility.yul\":8660:8664   */\n      0x24\n        /* \"#utility.yul\":8657:8658   */\n      0x00\n        /* \"#utility.yul\":8650:8665   */\n      revert\n        /* \"#utility.yul\":8800:8917   */\n    tag_182:\n        /* \"#utility.yul\":8909:8910   */\n      0x00\n        /* \"#utility.yul\":8906:8907   */\n      dup1\n        /* \"#utility.yul\":8899:8911   */\n      revert\n        /* \"#utility.yul\":8923:9093   */\n    tag_214:\n        /* \"#utility.yul\":9063:9085   */\n      0x496e76616c696420736861726520616d6f756e74000000000000000000000000\n        /* \"#utility.yul\":9059:9060   */\n      0x00\n        /* \"#utility.yul\":9051:9057   */\n      dup3\n        /* \"#utility.yul\":9047:9061   */\n      add\n        /* \"#utility.yul\":9040:9086   */\n      mstore\n        /* \"#utility.yul\":8923:9093   */\n      pop\n      jump\t// out\n        /* \"#utility.yul\":9099:9273   */\n    tag_219:\n        /* \"#utility.yul\":9239:9265   */\n      0x496e76616c6964206c697175696469747920616d6f756e740000000000000000\n        /* \"#utility.yul\":9235:9236   */\n      0x00\n        /* \"#utility.yul\":9227:9233   */\n      dup3\n        /* \"#utility.yul\":9223:9237   */\n      add\n        /* \"#utility.yul\":9216:9266   */\n      mstore\n        /* \"#utility.yul\":9099:9273   */\n      pop\n      jump\t// out\n        /* \"#utility.yul\":9279:9401   */\n    tag_167:\n        /* \"#utility.yul\":9352:9376   */\n      tag_293\n        /* \"#utility.yul\":9370:9375   */\n      dup2\n        /* \"#utility.yul\":9352:9376   */\n      tag_204\n      jump\t// in\n    tag_293:\n        /* \"#utility.yul\":9345:9350   */\n      dup2\n        /* \"#utility.yul\":9342:9377   */\n      eq\n        /* \"#utility.yul\":9332:9395   */\n      tag_294\n      jumpi\n        /* \"#utility.yul\":9391:9392   */\n      0x00\n        /* \"#utility.yul\":9388:9389   */\n      dup1\n        /* \"#utility.yul\":9381:9393   */\n      revert\n        /* \"#utility.yul\":9332:9395   */\n    tag_294:\n        /* \"#utility.yul\":9279:9401   */\n      pop\n      jump\t// out\n        /* \"#utility.yul\":9407:9523   */\n    tag_171:\n        /* \"#utility.yul\":9477:9498   */\n      tag_296\n        /* \"#utility.yul\":9492:9497   */\n      dup2\n        /* \"#utility.yul\":9477:9498   */\n      tag_269\n      jump\t// in\n    tag_296:\n        /* \"#utility.yul\":9470:9475   */\n      dup2\n        /* \"#utility.yul\":9467:9499   */\n      eq\n        /* \"#utility.yul\":9457:9517   */\n      tag_297\n      jumpi\n        /* \"#utility.yul\":9513:9514   */\n      0x00\n        /* \"#utility.yul\":9510:9511   */\n      dup1\n        /* \"#utility.yul\":9503:9515   */\n      revert\n        /* \"#utility.yul\":9457:9517   */\n    tag_297:\n        /* \"#utility.yul\":9407:9523   */\n      pop\n      jump\t// out\n        /* \"#utility.yul\":9529:9651   */\n    tag_175:\n        /* \"#utility.yul\":9602:9626   */\n      tag_299\n        /* \"#utility.yul\":9620:9625   */\n      dup2\n        /* \"#utility.yul\":9602:9626   */\n      tag_223\n      jump\t// in\n    tag_299:\n        /* \"#utility.yul\":9595:9600   */\n      dup2\n        /* \"#utility.yul\":9592:9627   */\n      eq\n        /* \"#utility.yul\":9582:9645   */\n      tag_300\n      jumpi\n        /* \"#utility.yul\":9641:9642   */\n      0x00\n        /* \"#utility.yul\":9638:9639   */\n      dup1\n        /* \"#utility.yul\":9631:9643   */\n      revert\n        /* \"#utility.yul\":9582:9645   */\n    tag_300:\n        /* \"#utility.yul\":9529:9651   */\n      pop\n      jump\t// out\n\n    auxdata: 0xa264697066735822122037ce248910b2ccf8df54b35f7ced69161032a1a0f673c0f7c91f7cb0e9ecdad364736f6c63430008070033\n}\n",
				"bytecode": {
					"linkReferences": {},
					"object": "60806040523480156200001157600080fd5b50604051620014f4380380620014f48339818101604052810190620000379190620000d7565b816000806101000a81548173ffffffffffffffffffffffffffffffffffffffff021916908373ffffffffffffffffffffffffffffffffffffffff16021790555080600160006101000a81548173ffffffffffffffffffffffffffffffffffffffff021916908373ffffffffffffffffffffffffffffffffffffffff160217905550505062000171565b600081519050620000d18162000157565b92915050565b60008060408385031215620000f157620000f062000152565b5b60006200010185828601620000c0565b92505060206200011485828601620000c0565b9150509250929050565b60006200012b8262000132565b9050919050565b600073ffffffffffffffffffffffffffffffffffffffff82169050919050565b600080fd5b62000162816200011e565b81146200016e57600080fd5b50565b61137380620001816000396000f3fe608060405234801561001057600080fd5b50600436106100a95760003560e01c80636205230e116100715780636205230e1461014257806390294664146101725780639c8f9f23146101905780639cd441da146101ac578063ce7c2ac2146101c8578063e5babf98146101f8576100a9565b806314354f9f146100ae5780631e31dc58146100cc5780633a98ef39146100fc5780633d18b9121461011a5780635361b7eb14610124575b600080fd5b6100b6610216565b6040516100c39190610fe0565b60405180910390f35b6100e660048036038101906100e19190610dfe565b61023c565b6040516100f3919061103b565b60405180910390f35b610104610254565b604051610111919061103b565b60405180910390f35b61012261025a565b005b61012c610601565b604051610139919061103b565b60405180910390f35b61015c60048036038101906101579190610dfe565b610607565b604051610169919061103b565b60405180910390f35b61017a61061f565b604051610187919061103b565b60405180910390f35b6101aa60048036038101906101a59190610e58565b610625565b005b6101c660048036038101906101c19190610eb2565b6109a1565b005b6101e260048036038101906101dd9190610dfe565b610d11565b6040516101ef919061103b565b60405180910390f35b610200610d29565b60405161020d9190610fe0565b60405180910390f35b600160009054906101000a900473ffffffffffffffffffffffffffffffffffffffff1681565b60026020528060005260406000206000915090505481565b60065481565b60008060009054906101000a900473ffffffffffffffffffffffffffffffffffffffff1673ffffffffffffffffffffffffffffffffffffffff166370a08231306040518263ffffffff1660e01b81526004016102b69190610f65565b60206040518083038186803b1580156102ce57600080fd5b505afa1580156102e2573d6000803e3d6000fd5b505050506040513d601f19601f820116820180604052508101906103069190610e85565b90506000600160009054906101000a900473ffffffffffffffffffffffffffffffffffffffff1673ffffffffffffffffffffffffffffffffffffffff166370a08231306040518263ffffffff1660e01b81526004016103659190610f65565b60206040518083038186803b15801561037d57600080fd5b505afa158015610391573d6000803e3d6000fd5b505050506040513d601f19601f820116820180604052508101906103b59190610e85565b90506000600454600654846103ca91906110ee565b6103d491906110bd565b90506000600554600654846103e991906110ee565b6103f391906110bd565b905060005b6006548110156105fa5760008190506000600760008373ffffffffffffffffffffffffffffffffffffffff1673ffffffffffffffffffffffffffffffffffffffff1681526020019081526020016000205490506000600654868361045c91906110ee565b61046691906110bd565b90506000600654868461047991906110ee565b61048391906110bd565b905060008054906101000a900473ffffffffffffffffffffffffffffffffffffffff1673ffffffffffffffffffffffffffffffffffffffff1663a9059cbb85846040518363ffffffff1660e01b81526004016104e0929190610fb7565b602060405180830381600087803b1580156104fa57600080fd5b505af115801561050e573d6000803e3d6000fd5b505050506040513d601f19601f820116820180604052508101906105329190610e2b565b50600160009054906101000a900473ffffffffffffffffffffffffffffffffffffffff1673ffffffffffffffffffffffffffffffffffffffff1663a9059cbb85836040518363ffffffff1660e01b8152600401610590929190610fb7565b602060405180830381600087803b1580156105aa57600080fd5b505af11580156105be573d6000803e3d6000fd5b505050506040513d601f19601f820116820180604052508101906105e29190610e2b565b505050505080806105f2906111fa565b9150506103f8565b5050505050565b60045481565b60036020528060005260406000206000915090505481565b60055481565b600081118015610674575080600760003373ffffffffffffffffffffffffffffffffffffffff1673ffffffffffffffffffffffffffffffffffffffff1681526020019081526020016000205410155b6106b3576040517f08c379a00000000000000000000000000000000000000000000000000000000081526004016106aa90610ffb565b60405180910390fd5b6000600654600454836106c691906110ee565b6106d091906110bd565b90506000600654600554846106e591906110ee565b6106ef91906110bd565b905081600260003373ffffffffffffffffffffffffffffffffffffffff1673ffffffffffffffffffffffffffffffffffffffff16815260200190815260200160002060008282546107409190611148565b9250508190555080600360003373ffffffffffffffffffffffffffffffffffffffff1673ffffffffffffffffffffffffffffffffffffffff16815260200190815260200160002060008282546107969190611148565b9250508190555081600460008282546107af9190611148565b9250508190555080600560008282546107c89190611148565b9250508190555082600760003373ffffffffffffffffffffffffffffffffffffffff1673ffffffffffffffffffffffffffffffffffffffff168152602001908152602001600020600082825461081e9190611148565b9250508190555082600660008282546108379190611148565b9250508190555060008054906101000a900473ffffffffffffffffffffffffffffffffffffffff1673ffffffffffffffffffffffffffffffffffffffff1663a9059cbb33846040518363ffffffff1660e01b8152600401610899929190610fb7565b602060405180830381600087803b1580156108b357600080fd5b505af11580156108c7573d6000803e3d6000fd5b505050506040513d601f19601f820116820180604052508101906108eb9190610e2b565b50600160009054906101000a900473ffffffffffffffffffffffffffffffffffffffff1673ffffffffffffffffffffffffffffffffffffffff1663a9059cbb33836040518363ffffffff1660e01b8152600401610949929190610fb7565b602060405180830381600087803b15801561096357600080fd5b505af1158015610977573d6000803e3d6000fd5b505050506040513d601f19601f8201168201806040525081019061099b9190610e2b565b50505050565b6000821180156109b15750600081115b6109f0576040517f08c379a00000000000000000000000000000000000000000000000000000000081526004016109e79061101b565b60405180910390fd5b60008054906101000a900473ffffffffffffffffffffffffffffffffffffffff1673ffffffffffffffffffffffffffffffffffffffff166323b872dd3330856040518463ffffffff1660e01b8152600401610a4d93929190610f80565b602060405180830381600087803b158015610a6757600080fd5b505af1158015610a7b573d6000803e3d6000fd5b505050506040513d601f19601f82011682018060405250810190610a9f9190610e2b565b50600160009054906101000a900473ffffffffffffffffffffffffffffffffffffffff1673ffffffffffffffffffffffffffffffffffffffff166323b872dd3330846040518463ffffffff1660e01b8152600401610aff93929190610f80565b602060405180830381600087803b158015610b1957600080fd5b505af1158015610b2d573d6000803e3d6000fd5b505050506040513d601f19601f82011682018060405250810190610b519190610e2b565b5081600260003373ffffffffffffffffffffffffffffffffffffffff1673ffffffffffffffffffffffffffffffffffffffff1681526020019081526020016000206000828254610ba19190611067565b9250508190555080600360003373ffffffffffffffffffffffffffffffffffffffff1673ffffffffffffffffffffffffffffffffffffffff1681526020019081526020016000206000828254610bf79190611067565b925050819055508160046000828254610c109190611067565b925050819055508060056000828254610c299190611067565b925050819055506000806006541415610c5757610c508284610c4b91906110ee565b610d4d565b9050610c9d565b610c6f600554600454610c6a91906110ee565b610d4d565b600654610c868486610c8191906110ee565b610d4d565b610c9091906110ee565b610c9a91906110bd565b90505b80600760003373ffffffffffffffffffffffffffffffffffffffff1673ffffffffffffffffffffffffffffffffffffffff1681526020019081526020016000206000828254610cec9190611067565b925050819055508060066000828254610d059190611067565b92505081905550505050565b60076020528060005260406000206000915090505481565b60008054906101000a900473ffffffffffffffffffffffffffffffffffffffff1681565b6000806002600184610d5f9190611067565b610d6991906110bd565b90508291505b81811015610da4578091506002818285610d8991906110bd565b610d939190611067565b610d9d91906110bd565b9050610d6f565b50919050565b600081359050610db9816112f8565b92915050565b600081519050610dce8161130f565b92915050565b600081359050610de381611326565b92915050565b600081519050610df881611326565b92915050565b600060208284031215610e1457610e136112a1565b5b6000610e2284828501610daa565b91505092915050565b600060208284031215610e4157610e406112a1565b5b6000610e4f84828501610dbf565b91505092915050565b600060208284031215610e6e57610e6d6112a1565b5b6000610e7c84828501610dd4565b91505092915050565b600060208284031215610e9b57610e9a6112a1565b5b6000610ea984828501610de9565b91505092915050565b60008060408385031215610ec957610ec86112a1565b5b6000610ed785828601610dd4565b9250506020610ee885828601610dd4565b9150509250929050565b610efb8161117c565b82525050565b610f0a816111c4565b82525050565b6000610f1d601483611056565b9150610f28826112a6565b602082019050919050565b6000610f40601883611056565b9150610f4b826112cf565b602082019050919050565b610f5f816111ba565b82525050565b6000602082019050610f7a6000830184610ef2565b92915050565b6000606082019050610f956000830186610ef2565b610fa26020830185610ef2565b610faf6040830184610f56565b949350505050565b6000604082019050610fcc6000830185610ef2565b610fd96020830184610f56565b9392505050565b6000602082019050610ff56000830184610f01565b92915050565b6000602082019050818103600083015261101481610f10565b9050919050565b6000602082019050818103600083015261103481610f33565b9050919050565b60006020820190506110506000830184610f56565b92915050565b600082825260208201905092915050565b6000611072826111ba565b915061107d836111ba565b9250827fffffffffffffffffffffffffffffffffffffffffffffffffffffffffffffffff038211156110b2576110b1611243565b5b828201905092915050565b60006110c8826111ba565b91506110d3836111ba565b9250826110e3576110e2611272565b5b828204905092915050565b60006110f9826111ba565b9150611104836111ba565b9250817fffffffffffffffffffffffffffffffffffffffffffffffffffffffffffffffff048311821515161561113d5761113c611243565b5b828202905092915050565b6000611153826111ba565b915061115e836111ba565b92508282101561117157611170611243565b5b828203905092915050565b60006111878261119a565b9050919050565b60008115159050919050565b600073ffffffffffffffffffffffffffffffffffffffff82169050919050565b6000819050919050565b60006111cf826111d6565b9050919050565b60006111e1826111e8565b9050919050565b60006111f38261119a565b9050919050565b6000611205826111ba565b91507fffffffffffffffffffffffffffffffffffffffffffffffffffffffffffffffff82141561123857611237611243565b5b600182019050919050565b7f4e487b7100000000000000000000000000000000000000000000000000000000600052601160045260246000fd5b7f4e487b7100000000000000000000000000000000000000000000000000000000600052601260045260246000fd5b600080fd5b7f496e76616c696420736861726520616d6f756e74000000000000000000000000600082015250565b7f496e76616c6964206c697175696469747920616d6f756e740000000000000000600082015250565b6113018161117c565b811461130c57600080fd5b50565b6113188161118e565b811461132357600080fd5b50565b61132f816111ba565b811461133a57600080fd5b5056fea264697066735822122037ce248910b2ccf8df54b35f7ced69161032a1a0f673c0f7c91f7cb0e9ecdad364736f6c63430008070033",
					"opcodes": "PUSH1 0x80 PUSH1 0x40 MSTORE CALLVALUE DUP1 ISZERO PUSH3 0x11 JUMPI PUSH1 0x0 DUP1 REVERT JUMPDEST POP PUSH1 0x40 MLOAD PUSH3 0x14F4 CODESIZE SUB DUP1 PUSH3 0x14F4 DUP4 CODECOPY DUP2 DUP2 ADD PUSH1 0x40 MSTORE DUP2 ADD SWAP1 PUSH3 0x37 SWAP2 SWAP1 PUSH3 0xD7 JUMP JUMPDEST DUP2 PUSH1 0x0 DUP1 PUSH2 0x100 EXP DUP2 SLOAD DUP2 PUSH20 0xFFFFFFFFFFFFFFFFFFFFFFFFFFFFFFFFFFFFFFFF MUL NOT AND SWAP1 DUP4 PUSH20 0xFFFFFFFFFFFFFFFFFFFFFFFFFFFFFFFFFFFFFFFF AND MUL OR SWAP1 SSTORE POP DUP1 PUSH1 0x1 PUSH1 0x0 PUSH2 0x100 EXP DUP2 SLOAD DUP2 PUSH20 0xFFFFFFFFFFFFFFFFFFFFFFFFFFFFFFFFFFFFFFFF MUL NOT AND SWAP1 DUP4 PUSH20 0xFFFFFFFFFFFFFFFFFFFFFFFFFFFFFFFFFFFFFFFF AND MUL OR SWAP1 SSTORE POP POP POP PUSH3 0x171 JUMP JUMPDEST PUSH1 0x0 DUP2 MLOAD SWAP1 POP PUSH3 0xD1 DUP2 PUSH3 0x157 JUMP JUMPDEST SWAP3 SWAP2 POP POP JUMP JUMPDEST PUSH1 0x0 DUP1 PUSH1 0x40 DUP4 DUP6 SUB SLT ISZERO PUSH3 0xF1 JUMPI PUSH3 0xF0 PUSH3 0x152 JUMP JUMPDEST JUMPDEST PUSH1 0x0 PUSH3 0x101 DUP6 DUP3 DUP7 ADD PUSH3 0xC0 JUMP JUMPDEST SWAP3 POP POP PUSH1 0x20 PUSH3 0x114 DUP6 DUP3 DUP7 ADD PUSH3 0xC0 JUMP JUMPDEST SWAP2 POP POP SWAP3 POP SWAP3 SWAP1 POP JUMP JUMPDEST PUSH1 0x0 PUSH3 0x12B DUP3 PUSH3 0x132 JUMP JUMPDEST SWAP1 POP SWAP2 SWAP1 POP JUMP JUMPDEST PUSH1 0x0 PUSH20 0xFFFFFFFFFFFFFFFFFFFFFFFFFFFFFFFFFFFFFFFF DUP3 AND SWAP1 POP SWAP2 SWAP1 POP JUMP JUMPDEST PUSH1 0x0 DUP1 REVERT JUMPDEST PUSH3 0x162 DUP2 PUSH3 0x11E JUMP JUMPDEST DUP2 EQ PUSH3 0x16E JUMPI PUSH1 0x0 DUP1 REVERT JUMPDEST POP JUMP JUMPDEST PUSH2 0x1373 DUP1 PUSH3 0x181 PUSH1 0x0 CODECOPY PUSH1 0x0 RETURN INVALID PUSH1 0x80 PUSH1 0x40 MSTORE CALLVALUE DUP1 ISZERO PUSH2 0x10 JUMPI PUSH1 0x0 DUP1 REVERT JUMPDEST POP PUSH1 0x4 CALLDATASIZE LT PUSH2 0xA9 JUMPI PUSH1 0x0 CALLDATALOAD PUSH1 0xE0 SHR DUP1 PUSH4 0x6205230E GT PUSH2 0x71 JUMPI DUP1 PUSH4 0x6205230E EQ PUSH2 0x142 JUMPI DUP1 PUSH4 0x90294664 EQ PUSH2 0x172 JUMPI DUP1 PUSH4 0x9C8F9F23 EQ PUSH2 0x190 JUMPI DUP1 PUSH4 0x9CD441DA EQ PUSH2 0x1AC JUMPI DUP1 PUSH4 0xCE7C2AC2 EQ PUSH2 0x1C8 JUMPI DUP1 PUSH4 0xE5BABF98 EQ PUSH2 0x1F8 JUMPI PUSH2 0xA9 JUMP JUMPDEST DUP1 PUSH4 0x14354F9F EQ PUSH2 0xAE JUMPI DUP1 PUSH4 0x1E31DC58 EQ PUSH2 0xCC JUMPI DUP1 PUSH4 0x3A98EF39 EQ PUSH2 0xFC JUMPI DUP1 PUSH4 0x3D18B912 EQ PUSH2 0x11A JUMPI DUP1 PUSH4 0x5361B7EB EQ PUSH2 0x124 JUMPI JUMPDEST PUSH1 0x0 DUP1 REVERT JUMPDEST PUSH2 0xB6 PUSH2 0x216 JUMP JUMPDEST PUSH1 0x40 MLOAD PUSH2 0xC3 SWAP2 SWAP1 PUSH2 0xFE0 JUMP JUMPDEST PUSH1 0x40 MLOAD DUP1 SWAP2 SUB SWAP1 RETURN JUMPDEST PUSH2 0xE6 PUSH1 0x4 DUP1 CALLDATASIZE SUB DUP2 ADD SWAP1 PUSH2 0xE1 SWAP2 SWAP1 PUSH2 0xDFE JUMP JUMPDEST PUSH2 0x23C JUMP JUMPDEST PUSH1 0x40 MLOAD PUSH2 0xF3 SWAP2 SWAP1 PUSH2 0x103B JUMP JUMPDEST PUSH1 0x40 MLOAD DUP1 SWAP2 SUB SWAP1 RETURN JUMPDEST PUSH2 0x104 PUSH2 0x254 JUMP JUMPDEST PUSH1 0x40 MLOAD PUSH2 0x111 SWAP2 SWAP1 PUSH2 0x103B JUMP JUMPDEST PUSH1 0x40 MLOAD DUP1 SWAP2 SUB SWAP1 RETURN JUMPDEST PUSH2 0x122 PUSH2 0x25A JUMP JUMPDEST STOP JUMPDEST PUSH2 0x12C PUSH2 0x601 JUMP JUMPDEST PUSH1 0x40 MLOAD PUSH2 0x139 SWAP2 SWAP1 PUSH2 0x103B JUMP JUMPDEST PUSH1 0x40 MLOAD DUP1 SWAP2 SUB SWAP1 RETURN JUMPDEST PUSH2 0x15C PUSH1 0x4 DUP1 CALLDATASIZE SUB DUP2 ADD SWAP1 PUSH2 0x157 SWAP2 SWAP1 PUSH2 0xDFE JUMP JUMPDEST PUSH2 0x607 JUMP JUMPDEST PUSH1 0x40 MLOAD PUSH2 0x169 SWAP2 SWAP1 PUSH2 0x103B JUMP JUMPDEST PUSH1 0x40 MLOAD DUP1 SWAP2 SUB SWAP1 RETURN JUMPDEST PUSH2 0x17A PUSH2 0x61F JUMP JUMPDEST PUSH1 0x40 MLOAD PUSH2 0x187 SWAP2 SWAP1 PUSH2 0x103B JUMP JUMPDEST PUSH1 0x40 MLOAD DUP1 SWAP2 SUB SWAP1 RETURN JUMPDEST PUSH2 0x1AA PUSH1 0x4 DUP1 CALLDATASIZE SUB DUP2 ADD SWAP1 PUSH2 0x1A5 SWAP2 SWAP1 PUSH2 0xE58 JUMP JUMPDEST PUSH2 0x625 JUMP JUMPDEST STOP JUMPDEST PUSH2 0x1C6 PUSH1 0x4 DUP1 CALLDATASIZE SUB DUP2 ADD SWAP1 PUSH2 0x1C1 SWAP2 SWAP1 PUSH2 0xEB2 JUMP JUMPDEST PUSH2 0x9A1 JUMP JUMPDEST STOP JUMPDEST PUSH2 0x1E2 PUSH1 0x4 DUP1 CALLDATASIZE SUB DUP2 ADD SWAP1 PUSH2 0x1DD SWAP2 SWAP1 PUSH2 0xDFE JUMP JUMPDEST PUSH2 0xD11 JUMP JUMPDEST PUSH1 0x40 MLOAD PUSH2 0x1EF SWAP2 SWAP1 PUSH2 0x103B JUMP JUMPDEST PUSH1 0x40 MLOAD DUP1 SWAP2 SUB SWAP1 RETURN JUMPDEST PUSH2 0x200 PUSH2 0xD29 JUMP JUMPDEST PUSH1 0x40 MLOAD PUSH2 0x20D SWAP2 SWAP1 PUSH2 0xFE0 JUMP JUMPDEST PUSH1 0x40 MLOAD DUP1 SWAP2 SUB SWAP1 RETURN JUMPDEST PUSH1 0x1 PUSH1 0x0 SWAP1 SLOAD SWAP1 PUSH2 0x100 EXP SWAP1 DIV PUSH20 0xFFFFFFFFFFFFFFFFFFFFFFFFFFFFFFFFFFFFFFFF AND DUP2 JUMP JUMPDEST PUSH1 0x2 PUSH1 0x20 MSTORE DUP1 PUSH1 0x0 MSTORE PUSH1 0x40 PUSH1 0x0 KECCAK256 PUSH1 0x0 SWAP2 POP SWAP1 POP SLOAD DUP2 JUMP JUMPDEST PUSH1 0x6 SLOAD DUP2 JUMP JUMPDEST PUSH1 0x0 DUP1 PUSH1 0x0 SWAP1 SLOAD SWAP1 PUSH2 0x100 EXP SWAP1 DIV PUSH20 0xFFFFFFFFFFFFFFFFFFFFFFFFFFFFFFFFFFFFFFFF AND PUSH20 0xFFFFFFFFFFFFFFFFFFFFFFFFFFFFFFFFFFFFFFFF AND PUSH4 0x70A08231 ADDRESS PUSH1 0x40 MLOAD DUP3 PUSH4 0xFFFFFFFF AND PUSH1 0xE0 SHL DUP2 MSTORE PUSH1 0x4 ADD PUSH2 0x2B6 SWAP2 SWAP1 PUSH2 0xF65 JUMP JUMPDEST PUSH1 0x20 PUSH1 0x40 MLOAD DUP1 DUP4 SUB DUP2 DUP7 DUP1 EXTCODESIZE ISZERO DUP1 ISZERO PUSH2 0x2CE JUMPI PUSH1 0x0 DUP1 REVERT JUMPDEST POP GAS STATICCALL ISZERO DUP1 ISZERO PUSH2 0x2E2 JUMPI RETURNDATASIZE PUSH1 0x0 DUP1 RETURNDATACOPY RETURNDATASIZE PUSH1 0x0 REVERT JUMPDEST POP POP POP POP PUSH1 0x40 MLOAD RETURNDATASIZE PUSH1 0x1F NOT PUSH1 0x1F DUP3 ADD AND DUP3 ADD DUP1 PUSH1 0x40 MSTORE POP DUP2 ADD SWAP1 PUSH2 0x306 SWAP2 SWAP1 PUSH2 0xE85 JUMP JUMPDEST SWAP1 POP PUSH1 0x0 PUSH1 0x1 PUSH1 0x0 SWAP1 SLOAD SWAP1 PUSH2 0x100 EXP SWAP1 DIV PUSH20 0xFFFFFFFFFFFFFFFFFFFFFFFFFFFFFFFFFFFFFFFF AND PUSH20 0xFFFFFFFFFFFFFFFFFFFFFFFFFFFFFFFFFFFFFFFF AND PUSH4 0x70A08231 ADDRESS PUSH1 0x40 MLOAD DUP3 PUSH4 0xFFFFFFFF AND PUSH1 0xE0 SHL DUP2 MSTORE PUSH1 0x4 ADD PUSH2 0x365 SWAP2 SWAP1 PUSH2 0xF65 JUMP JUMPDEST PUSH1 0x20 PUSH1 0x40 MLOAD DUP1 DUP4 SUB DUP2 DUP7 DUP1 EXTCODESIZE ISZERO DUP1 ISZERO PUSH2 0x37D JUMPI PUSH1 0x0 DUP1 REVERT JUMPDEST POP GAS STATICCALL ISZERO DUP1 ISZERO PUSH2 0x391 JUMPI RETURNDATASIZE PUSH1 0x0 DUP1 RETURNDATACOPY RETURNDATASIZE PUSH1 0x0 REVERT JUMPDEST POP POP POP POP PUSH1 0x40 MLOAD RETURNDATASIZE PUSH1 0x1F NOT PUSH1 0x1F DUP3 ADD AND DUP3 ADD DUP1 PUSH1 0x40 MSTORE POP DUP2 ADD SWAP1 PUSH2 0x3B5 SWAP2 SWAP1 PUSH2 0xE85 JUMP JUMPDEST SWAP1 POP PUSH1 0x0 PUSH1 0x4 SLOAD PUSH1 0x6 SLOAD DUP5 PUSH2 0x3CA SWAP2 SWAP1 PUSH2 0x10EE JUMP JUMPDEST PUSH2 0x3D4 SWAP2 SWAP1 PUSH2 0x10BD JUMP JUMPDEST SWAP1 POP PUSH1 0x0 PUSH1 0x5 SLOAD PUSH1 0x6 SLOAD DUP5 PUSH2 0x3E9 SWAP2 SWAP1 PUSH2 0x10EE JUMP JUMPDEST PUSH2 0x3F3 SWAP2 SWAP1 PUSH2 0x10BD JUMP JUMPDEST SWAP1 POP PUSH1 0x0 JUMPDEST PUSH1 0x6 SLOAD DUP2 LT ISZERO PUSH2 0x5FA JUMPI PUSH1 0x0 DUP2 SWAP1 POP PUSH1 0x0 PUSH1 0x7 PUSH1 0x0 DUP4 PUSH20 0xFFFFFFFFFFFFFFFFFFFFFFFFFFFFFFFFFFFFFFFF AND PUSH20 0xFFFFFFFFFFFFFFFFFFFFFFFFFFFFFFFFFFFFFFFF AND DUP2 MSTORE PUSH1 0x20 ADD SWAP1 DUP2 MSTORE PUSH1 0x20 ADD PUSH1 0x0 KECCAK256 SLOAD SWAP1 POP PUSH1 0x0 PUSH1 0x6 SLOAD DUP7 DUP4 PUSH2 0x45C SWAP2 SWAP1 PUSH2 0x10EE JUMP JUMPDEST PUSH2 0x466 SWAP2 SWAP1 PUSH2 0x10BD JUMP JUMPDEST SWAP1 POP PUSH1 0x0 PUSH1 0x6 SLOAD DUP7 DUP5 PUSH2 0x479 SWAP2 SWAP1 PUSH2 0x10EE JUMP JUMPDEST PUSH2 0x483 SWAP2 SWAP1 PUSH2 0x10BD JUMP JUMPDEST SWAP1 POP PUSH1 0x0 DUP1 SLOAD SWAP1 PUSH2 0x100 EXP SWAP1 DIV PUSH20 0xFFFFFFFFFFFFFFFFFFFFFFFFFFFFFFFFFFFFFFFF AND PUSH20 0xFFFFFFFFFFFFFFFFFFFFFFFFFFFFFFFFFFFFFFFF AND PUSH4 0xA9059CBB DUP6 DUP5 PUSH1 0x40 MLOAD DUP4 PUSH4 0xFFFFFFFF AND PUSH1 0xE0 SHL DUP2 MSTORE PUSH1 0x4 ADD PUSH2 0x4E0 SWAP3 SWAP2 SWAP1 PUSH2 0xFB7 JUMP JUMPDEST PUSH1 0x20 PUSH1 0x40 MLOAD DUP1 DUP4 SUB DUP2 PUSH1 0x0 DUP8 DUP1 EXTCODESIZE ISZERO DUP1 ISZERO PUSH2 0x4FA JUMPI PUSH1 0x0 DUP1 REVERT JUMPDEST POP GAS CALL ISZERO DUP1 ISZERO PUSH2 0x50E JUMPI RETURNDATASIZE PUSH1 0x0 DUP1 RETURNDATACOPY RETURNDATASIZE PUSH1 0x0 REVERT JUMPDEST POP POP POP POP PUSH1 0x40 MLOAD RETURNDATASIZE PUSH1 0x1F NOT PUSH1 0x1F DUP3 ADD AND DUP3 ADD DUP1 PUSH1 0x40 MSTORE POP DUP2 ADD SWAP1 PUSH2 0x532 SWAP2 SWAP1 PUSH2 0xE2B JUMP JUMPDEST POP PUSH1 0x1 PUSH1 0x0 SWAP1 SLOAD SWAP1 PUSH2 0x100 EXP SWAP1 DIV PUSH20 0xFFFFFFFFFFFFFFFFFFFFFFFFFFFFFFFFFFFFFFFF AND PUSH20 0xFFFFFFFFFFFFFFFFFFFFFFFFFFFFFFFFFFFFFFFF AND PUSH4 0xA9059CBB DUP6 DUP4 PUSH1 0x40 MLOAD DUP4 PUSH4 0xFFFFFFFF AND PUSH1 0xE0 SHL DUP2 MSTORE PUSH1 0x4 ADD PUSH2 0x590 SWAP3 SWAP2 SWAP1 PUSH2 0xFB7 JUMP JUMPDEST PUSH1 0x20 PUSH1 0x40 MLOAD DUP1 DUP4 SUB DUP2 PUSH1 0x0 DUP8 DUP1 EXTCODESIZE ISZERO DUP1 ISZERO PUSH2 0x5AA JUMPI PUSH1 0x0 DUP1 REVERT JUMPDEST POP GAS CALL ISZERO DUP1 ISZERO PUSH2 0x5BE JUMPI RETURNDATASIZE PUSH1 0x0 DUP1 RETURNDATACOPY RETURNDATASIZE PUSH1 0x0 REVERT JUMPDEST POP POP POP POP PUSH1 0x40 MLOAD RETURNDATASIZE PUSH1 0x1F NOT PUSH1 0x1F DUP3 ADD AND DUP3 ADD DUP1 PUSH1 0x40 MSTORE POP DUP2 ADD SWAP1 PUSH2 0x5E2 SWAP2 SWAP1 PUSH2 0xE2B JUMP JUMPDEST POP POP POP POP POP DUP1 DUP1 PUSH2 0x5F2 SWAP1 PUSH2 0x11FA JUMP JUMPDEST SWAP2 POP POP PUSH2 0x3F8 JUMP JUMPDEST POP POP POP POP POP JUMP JUMPDEST PUSH1 0x4 SLOAD DUP2 JUMP JUMPDEST PUSH1 0x3 PUSH1 0x20 MSTORE DUP1 PUSH1 0x0 MSTORE PUSH1 0x40 PUSH1 0x0 KECCAK256 PUSH1 0x0 SWAP2 POP SWAP1 POP SLOAD DUP2 JUMP JUMPDEST PUSH1 0x5 SLOAD DUP2 JUMP JUMPDEST PUSH1 0x0 DUP2 GT DUP1 ISZERO PUSH2 0x674 JUMPI POP DUP1 PUSH1 0x7 PUSH1 0x0 CALLER PUSH20 0xFFFFFFFFFFFFFFFFFFFFFFFFFFFFFFFFFFFFFFFF AND PUSH20 0xFFFFFFFFFFFFFFFFFFFFFFFFFFFFFFFFFFFFFFFF AND DUP2 MSTORE PUSH1 0x20 ADD SWAP1 DUP2 MSTORE PUSH1 0x20 ADD PUSH1 0x0 KECCAK256 SLOAD LT ISZERO JUMPDEST PUSH2 0x6B3 JUMPI PUSH1 0x40 MLOAD PUSH32 0x8C379A000000000000000000000000000000000000000000000000000000000 DUP2 MSTORE PUSH1 0x4 ADD PUSH2 0x6AA SWAP1 PUSH2 0xFFB JUMP JUMPDEST PUSH1 0x40 MLOAD DUP1 SWAP2 SUB SWAP1 REVERT JUMPDEST PUSH1 0x0 PUSH1 0x6 SLOAD PUSH1 0x4 SLOAD DUP4 PUSH2 0x6C6 SWAP2 SWAP1 PUSH2 0x10EE JUMP JUMPDEST PUSH2 0x6D0 SWAP2 SWAP1 PUSH2 0x10BD JUMP JUMPDEST SWAP1 POP PUSH1 0x0 PUSH1 0x6 SLOAD PUSH1 0x5 SLOAD DUP5 PUSH2 0x6E5 SWAP2 SWAP1 PUSH2 0x10EE JUMP JUMPDEST PUSH2 0x6EF SWAP2 SWAP1 PUSH2 0x10BD JUMP JUMPDEST SWAP1 POP DUP2 PUSH1 0x2 PUSH1 0x0 CALLER PUSH20 0xFFFFFFFFFFFFFFFFFFFFFFFFFFFFFFFFFFFFFFFF AND PUSH20 0xFFFFFFFFFFFFFFFFFFFFFFFFFFFFFFFFFFFFFFFF AND DUP2 MSTORE PUSH1 0x20 ADD SWAP1 DUP2 MSTORE PUSH1 0x20 ADD PUSH1 0x0 KECCAK256 PUSH1 0x0 DUP3 DUP3 SLOAD PUSH2 0x740 SWAP2 SWAP1 PUSH2 0x1148 JUMP JUMPDEST SWAP3 POP POP DUP2 SWAP1 SSTORE POP DUP1 PUSH1 0x3 PUSH1 0x0 CALLER PUSH20 0xFFFFFFFFFFFFFFFFFFFFFFFFFFFFFFFFFFFFFFFF AND PUSH20 0xFFFFFFFFFFFFFFFFFFFFFFFFFFFFFFFFFFFFFFFF AND DUP2 MSTORE PUSH1 0x20 ADD SWAP1 DUP2 MSTORE PUSH1 0x20 ADD PUSH1 0x0 KECCAK256 PUSH1 0x0 DUP3 DUP3 SLOAD PUSH2 0x796 SWAP2 SWAP1 PUSH2 0x1148 JUMP JUMPDEST SWAP3 POP POP DUP2 SWAP1 SSTORE POP DUP2 PUSH1 0x4 PUSH1 0x0 DUP3 DUP3 SLOAD PUSH2 0x7AF SWAP2 SWAP1 PUSH2 0x1148 JUMP JUMPDEST SWAP3 POP POP DUP2 SWAP1 SSTORE POP DUP1 PUSH1 0x5 PUSH1 0x0 DUP3 DUP3 SLOAD PUSH2 0x7C8 SWAP2 SWAP1 PUSH2 0x1148 JUMP JUMPDEST SWAP3 POP POP DUP2 SWAP1 SSTORE POP DUP3 PUSH1 0x7 PUSH1 0x0 CALLER PUSH20 0xFFFFFFFFFFFFFFFFFFFFFFFFFFFFFFFFFFFFFFFF AND PUSH20 0xFFFFFFFFFFFFFFFFFFFFFFFFFFFFFFFFFFFFFFFF AND DUP2 MSTORE PUSH1 0x20 ADD SWAP1 DUP2 MSTORE PUSH1 0x20 ADD PUSH1 0x0 KECCAK256 PUSH1 0x0 DUP3 DUP3 SLOAD PUSH2 0x81E SWAP2 SWAP1 PUSH2 0x1148 JUMP JUMPDEST SWAP3 POP POP DUP2 SWAP1 SSTORE POP DUP3 PUSH1 0x6 PUSH1 0x0 DUP3 DUP3 SLOAD PUSH2 0x837 SWAP2 SWAP1 PUSH2 0x1148 JUMP JUMPDEST SWAP3 POP POP DUP2 SWAP1 SSTORE POP PUSH1 0x0 DUP1 SLOAD SWAP1 PUSH2 0x100 EXP SWAP1 DIV PUSH20 0xFFFFFFFFFFFFFFFFFFFFFFFFFFFFFFFFFFFFFFFF AND PUSH20 0xFFFFFFFFFFFFFFFFFFFFFFFFFFFFFFFFFFFFFFFF AND PUSH4 0xA9059CBB CALLER DUP5 PUSH1 0x40 MLOAD DUP4 PUSH4 0xFFFFFFFF AND PUSH1 0xE0 SHL DUP2 MSTORE PUSH1 0x4 ADD PUSH2 0x899 SWAP3 SWAP2 SWAP1 PUSH2 0xFB7 JUMP JUMPDEST PUSH1 0x20 PUSH1 0x40 MLOAD DUP1 DUP4 SUB DUP2 PUSH1 0x0 DUP8 DUP1 EXTCODESIZE ISZERO DUP1 ISZERO PUSH2 0x8B3 JUMPI PUSH1 0x0 DUP1 REVERT JUMPDEST POP GAS CALL ISZERO DUP1 ISZERO PUSH2 0x8C7 JUMPI RETURNDATASIZE PUSH1 0x0 DUP1 RETURNDATACOPY RETURNDATASIZE PUSH1 0x0 REVERT JUMPDEST POP POP POP POP PUSH1 0x40 MLOAD RETURNDATASIZE PUSH1 0x1F NOT PUSH1 0x1F DUP3 ADD AND DUP3 ADD DUP1 PUSH1 0x40 MSTORE POP DUP2 ADD SWAP1 PUSH2 0x8EB SWAP2 SWAP1 PUSH2 0xE2B JUMP JUMPDEST POP PUSH1 0x1 PUSH1 0x0 SWAP1 SLOAD SWAP1 PUSH2 0x100 EXP SWAP1 DIV PUSH20 0xFFFFFFFFFFFFFFFFFFFFFFFFFFFFFFFFFFFFFFFF AND PUSH20 0xFFFFFFFFFFFFFFFFFFFFFFFFFFFFFFFFFFFFFFFF AND PUSH4 0xA9059CBB CALLER DUP4 PUSH1 0x40 MLOAD DUP4 PUSH4 0xFFFFFFFF AND PUSH1 0xE0 SHL DUP2 MSTORE PUSH1 0x4 ADD PUSH2 0x949 SWAP3 SWAP2 SWAP1 PUSH2 0xFB7 JUMP JUMPDEST PUSH1 0x20 PUSH1 0x40 MLOAD DUP1 DUP4 SUB DUP2 PUSH1 0x0 DUP8 DUP1 EXTCODESIZE ISZERO DUP1 ISZERO PUSH2 0x963 JUMPI PUSH1 0x0 DUP1 REVERT JUMPDEST POP GAS CALL ISZERO DUP1 ISZERO PUSH2 0x977 JUMPI RETURNDATASIZE PUSH1 0x0 DUP1 RETURNDATACOPY RETURNDATASIZE PUSH1 0x0 REVERT JUMPDEST POP POP POP POP PUSH1 0x40 MLOAD RETURNDATASIZE PUSH1 0x1F NOT PUSH1 0x1F DUP3 ADD AND DUP3 ADD DUP1 PUSH1 0x40 MSTORE POP DUP2 ADD SWAP1 PUSH2 0x99B SWAP2 SWAP1 PUSH2 0xE2B JUMP JUMPDEST POP POP POP POP JUMP JUMPDEST PUSH1 0x0 DUP3 GT DUP1 ISZERO PUSH2 0x9B1 JUMPI POP PUSH1 0x0 DUP2 GT JUMPDEST PUSH2 0x9F0 JUMPI PUSH1 0x40 MLOAD PUSH32 0x8C379A000000000000000000000000000000000000000000000000000000000 DUP2 MSTORE PUSH1 0x4 ADD PUSH2 0x9E7 SWAP1 PUSH2 0x101B JUMP JUMPDEST PUSH1 0x40 MLOAD DUP1 SWAP2 SUB SWAP1 REVERT JUMPDEST PUSH1 0x0 DUP1 SLOAD SWAP1 PUSH2 0x100 EXP SWAP1 DIV PUSH20 0xFFFFFFFFFFFFFFFFFFFFFFFFFFFFFFFFFFFFFFFF AND PUSH20 0xFFFFFFFFFFFFFFFFFFFFFFFFFFFFFFFFFFFFFFFF AND PUSH4 0x23B872DD CALLER ADDRESS DUP6 PUSH1 0x40 MLOAD DUP5 PUSH4 0xFFFFFFFF AND PUSH1 0xE0 SHL DUP2 MSTORE PUSH1 0x4 ADD PUSH2 0xA4D SWAP4 SWAP3 SWAP2 SWAP1 PUSH2 0xF80 JUMP JUMPDEST PUSH1 0x20 PUSH1 0x40 MLOAD DUP1 DUP4 SUB DUP2 PUSH1 0x0 DUP8 DUP1 EXTCODESIZE ISZERO DUP1 ISZERO PUSH2 0xA67 JUMPI PUSH1 0x0 DUP1 REVERT JUMPDEST POP GAS CALL ISZERO DUP1 ISZERO PUSH2 0xA7B JUMPI RETURNDATASIZE PUSH1 0x0 DUP1 RETURNDATACOPY RETURNDATASIZE PUSH1 0x0 REVERT JUMPDEST POP POP POP POP PUSH1 0x40 MLOAD RETURNDATASIZE PUSH1 0x1F NOT PUSH1 0x1F DUP3 ADD AND DUP3 ADD DUP1 PUSH1 0x40 MSTORE POP DUP2 ADD SWAP1 PUSH2 0xA9F SWAP2 SWAP1 PUSH2 0xE2B JUMP JUMPDEST POP PUSH1 0x1 PUSH1 0x0 SWAP1 SLOAD SWAP1 PUSH2 0x100 EXP SWAP1 DIV PUSH20 0xFFFFFFFFFFFFFFFFFFFFFFFFFFFFFFFFFFFFFFFF AND PUSH20 0xFFFFFFFFFFFFFFFFFFFFFFFFFFFFFFFFFFFFFFFF AND PUSH4 0x23B872DD CALLER ADDRESS DUP5 PUSH1 0x40 MLOAD DUP5 PUSH4 0xFFFFFFFF AND PUSH1 0xE0 SHL DUP2 MSTORE PUSH1 0x4 ADD PUSH2 0xAFF SWAP4 SWAP3 SWAP2 SWAP1 PUSH2 0xF80 JUMP JUMPDEST PUSH1 0x20 PUSH1 0x40 MLOAD DUP1 DUP4 SUB DUP2 PUSH1 0x0 DUP8 DUP1 EXTCODESIZE ISZERO DUP1 ISZERO PUSH2 0xB19 JUMPI PUSH1 0x0 DUP1 REVERT JUMPDEST POP GAS CALL ISZERO DUP1 ISZERO PUSH2 0xB2D JUMPI RETURNDATASIZE PUSH1 0x0 DUP1 RETURNDATACOPY RETURNDATASIZE PUSH1 0x0 REVERT JUMPDEST POP POP POP POP PUSH1 0x40 MLOAD RETURNDATASIZE PUSH1 0x1F NOT PUSH1 0x1F DUP3 ADD AND DUP3 ADD DUP1 PUSH1 0x40 MSTORE POP DUP2 ADD SWAP1 PUSH2 0xB51 SWAP2 SWAP1 PUSH2 0xE2B JUMP JUMPDEST POP DUP2 PUSH1 0x2 PUSH1 0x0 CALLER PUSH20 0xFFFFFFFFFFFFFFFFFFFFFFFFFFFFFFFFFFFFFFFF AND PUSH20 0xFFFFFFFFFFFFFFFFFFFFFFFFFFFFFFFFFFFFFFFF AND DUP2 MSTORE PUSH1 0x20 ADD SWAP1 DUP2 MSTORE PUSH1 0x20 ADD PUSH1 0x0 KECCAK256 PUSH1 0x0 DUP3 DUP3 SLOAD PUSH2 0xBA1 SWAP2 SWAP1 PUSH2 0x1067 JUMP JUMPDEST SWAP3 POP POP DUP2 SWAP1 SSTORE POP DUP1 PUSH1 0x3 PUSH1 0x0 CALLER PUSH20 0xFFFFFFFFFFFFFFFFFFFFFFFFFFFFFFFFFFFFFFFF AND PUSH20 0xFFFFFFFFFFFFFFFFFFFFFFFFFFFFFFFFFFFFFFFF AND DUP2 MSTORE PUSH1 0x20 ADD SWAP1 DUP2 MSTORE PUSH1 0x20 ADD PUSH1 0x0 KECCAK256 PUSH1 0x0 DUP3 DUP3 SLOAD PUSH2 0xBF7 SWAP2 SWAP1 PUSH2 0x1067 JUMP JUMPDEST SWAP3 POP POP DUP2 SWAP1 SSTORE POP DUP2 PUSH1 0x4 PUSH1 0x0 DUP3 DUP3 SLOAD PUSH2 0xC10 SWAP2 SWAP1 PUSH2 0x1067 JUMP JUMPDEST SWAP3 POP POP DUP2 SWAP1 SSTORE POP DUP1 PUSH1 0x5 PUSH1 0x0 DUP3 DUP3 SLOAD PUSH2 0xC29 SWAP2 SWAP1 PUSH2 0x1067 JUMP JUMPDEST SWAP3 POP POP DUP2 SWAP1 SSTORE POP PUSH1 0x0 DUP1 PUSH1 0x6 SLOAD EQ ISZERO PUSH2 0xC57 JUMPI PUSH2 0xC50 DUP3 DUP5 PUSH2 0xC4B SWAP2 SWAP1 PUSH2 0x10EE JUMP JUMPDEST PUSH2 0xD4D JUMP JUMPDEST SWAP1 POP PUSH2 0xC9D JUMP JUMPDEST PUSH2 0xC6F PUSH1 0x5 SLOAD PUSH1 0x4 SLOAD PUSH2 0xC6A SWAP2 SWAP1 PUSH2 0x10EE JUMP JUMPDEST PUSH2 0xD4D JUMP JUMPDEST PUSH1 0x6 SLOAD PUSH2 0xC86 DUP5 DUP7 PUSH2 0xC81 SWAP2 SWAP1 PUSH2 0x10EE JUMP JUMPDEST PUSH2 0xD4D JUMP JUMPDEST PUSH2 0xC90 SWAP2 SWAP1 PUSH2 0x10EE JUMP JUMPDEST PUSH2 0xC9A SWAP2 SWAP1 PUSH2 0x10BD JUMP JUMPDEST SWAP1 POP JUMPDEST DUP1 PUSH1 0x7 PUSH1 0x0 CALLER PUSH20 0xFFFFFFFFFFFFFFFFFFFFFFFFFFFFFFFFFFFFFFFF AND PUSH20 0xFFFFFFFFFFFFFFFFFFFFFFFFFFFFFFFFFFFFFFFF AND DUP2 MSTORE PUSH1 0x20 ADD SWAP1 DUP2 MSTORE PUSH1 0x20 ADD PUSH1 0x0 KECCAK256 PUSH1 0x0 DUP3 DUP3 SLOAD PUSH2 0xCEC SWAP2 SWAP1 PUSH2 0x1067 JUMP JUMPDEST SWAP3 POP POP DUP2 SWAP1 SSTORE POP DUP1 PUSH1 0x6 PUSH1 0x0 DUP3 DUP3 SLOAD PUSH2 0xD05 SWAP2 SWAP1 PUSH2 0x1067 JUMP JUMPDEST SWAP3 POP POP DUP2 SWAP1 SSTORE POP POP POP POP JUMP JUMPDEST PUSH1 0x7 PUSH1 0x20 MSTORE DUP1 PUSH1 0x0 MSTORE PUSH1 0x40 PUSH1 0x0 KECCAK256 PUSH1 0x0 SWAP2 POP SWAP1 POP SLOAD DUP2 JUMP JUMPDEST PUSH1 0x0 DUP1 SLOAD SWAP1 PUSH2 0x100 EXP SWAP1 DIV PUSH20 0xFFFFFFFFFFFFFFFFFFFFFFFFFFFFFFFFFFFFFFFF AND DUP2 JUMP JUMPDEST PUSH1 0x0 DUP1 PUSH1 0x2 PUSH1 0x1 DUP5 PUSH2 0xD5F SWAP2 SWAP1 PUSH2 0x1067 JUMP JUMPDEST PUSH2 0xD69 SWAP2 SWAP1 PUSH2 0x10BD JUMP JUMPDEST SWAP1 POP DUP3 SWAP2 POP JUMPDEST DUP2 DUP2 LT ISZERO PUSH2 0xDA4 JUMPI DUP1 SWAP2 POP PUSH1 0x2 DUP2 DUP3 DUP6 PUSH2 0xD89 SWAP2 SWAP1 PUSH2 0x10BD JUMP JUMPDEST PUSH2 0xD93 SWAP2 SWAP1 PUSH2 0x1067 JUMP JUMPDEST PUSH2 0xD9D SWAP2 SWAP1 PUSH2 0x10BD JUMP JUMPDEST SWAP1 POP PUSH2 0xD6F JUMP JUMPDEST POP SWAP2 SWAP1 POP JUMP JUMPDEST PUSH1 0x0 DUP2 CALLDATALOAD SWAP1 POP PUSH2 0xDB9 DUP2 PUSH2 0x12F8 JUMP JUMPDEST SWAP3 SWAP2 POP POP JUMP JUMPDEST PUSH1 0x0 DUP2 MLOAD SWAP1 POP PUSH2 0xDCE DUP2 PUSH2 0x130F JUMP JUMPDEST SWAP3 SWAP2 POP POP JUMP JUMPDEST PUSH1 0x0 DUP2 CALLDATALOAD SWAP1 POP PUSH2 0xDE3 DUP2 PUSH2 0x1326 JUMP JUMPDEST SWAP3 SWAP2 POP POP JUMP JUMPDEST PUSH1 0x0 DUP2 MLOAD SWAP1 POP PUSH2 0xDF8 DUP2 PUSH2 0x1326 JUMP JUMPDEST SWAP3 SWAP2 POP POP JUMP JUMPDEST PUSH1 0x0 PUSH1 0x20 DUP3 DUP5 SUB SLT ISZERO PUSH2 0xE14 JUMPI PUSH2 0xE13 PUSH2 0x12A1 JUMP JUMPDEST JUMPDEST PUSH1 0x0 PUSH2 0xE22 DUP5 DUP3 DUP6 ADD PUSH2 0xDAA JUMP JUMPDEST SWAP2 POP POP SWAP3 SWAP2 POP POP JUMP JUMPDEST PUSH1 0x0 PUSH1 0x20 DUP3 DUP5 SUB SLT ISZERO PUSH2 0xE41 JUMPI PUSH2 0xE40 PUSH2 0x12A1 JUMP JUMPDEST JUMPDEST PUSH1 0x0 PUSH2 0xE4F DUP5 DUP3 DUP6 ADD PUSH2 0xDBF JUMP JUMPDEST SWAP2 POP POP SWAP3 SWAP2 POP POP JUMP JUMPDEST PUSH1 0x0 PUSH1 0x20 DUP3 DUP5 SUB SLT ISZERO PUSH2 0xE6E JUMPI PUSH2 0xE6D PUSH2 0x12A1 JUMP JUMPDEST JUMPDEST PUSH1 0x0 PUSH2 0xE7C DUP5 DUP3 DUP6 ADD PUSH2 0xDD4 JUMP JUMPDEST SWAP2 POP POP SWAP3 SWAP2 POP POP JUMP JUMPDEST PUSH1 0x0 PUSH1 0x20 DUP3 DUP5 SUB SLT ISZERO PUSH2 0xE9B JUMPI PUSH2 0xE9A PUSH2 0x12A1 JUMP JUMPDEST JUMPDEST PUSH1 0x0 PUSH2 0xEA9 DUP5 DUP3 DUP6 ADD PUSH2 0xDE9 JUMP JUMPDEST SWAP2 POP POP SWAP3 SWAP2 POP POP JUMP JUMPDEST PUSH1 0x0 DUP1 PUSH1 0x40 DUP4 DUP6 SUB SLT ISZERO PUSH2 0xEC9 JUMPI PUSH2 0xEC8 PUSH2 0x12A1 JUMP JUMPDEST JUMPDEST PUSH1 0x0 PUSH2 0xED7 DUP6 DUP3 DUP7 ADD PUSH2 0xDD4 JUMP JUMPDEST SWAP3 POP POP PUSH1 0x20 PUSH2 0xEE8 DUP6 DUP3 DUP7 ADD PUSH2 0xDD4 JUMP JUMPDEST SWAP2 POP POP SWAP3 POP SWAP3 SWAP1 POP JUMP JUMPDEST PUSH2 0xEFB DUP2 PUSH2 0x117C JUMP JUMPDEST DUP3 MSTORE POP POP JUMP JUMPDEST PUSH2 0xF0A DUP2 PUSH2 0x11C4 JUMP JUMPDEST DUP3 MSTORE POP POP JUMP JUMPDEST PUSH1 0x0 PUSH2 0xF1D PUSH1 0x14 DUP4 PUSH2 0x1056 JUMP JUMPDEST SWAP2 POP PUSH2 0xF28 DUP3 PUSH2 0x12A6 JUMP JUMPDEST PUSH1 0x20 DUP3 ADD SWAP1 POP SWAP2 SWAP1 POP JUMP JUMPDEST PUSH1 0x0 PUSH2 0xF40 PUSH1 0x18 DUP4 PUSH2 0x1056 JUMP JUMPDEST SWAP2 POP PUSH2 0xF4B DUP3 PUSH2 0x12CF JUMP JUMPDEST PUSH1 0x20 DUP3 ADD SWAP1 POP SWAP2 SWAP1 POP JUMP JUMPDEST PUSH2 0xF5F DUP2 PUSH2 0x11BA JUMP JUMPDEST DUP3 MSTORE POP POP JUMP JUMPDEST PUSH1 0x0 PUSH1 0x20 DUP3 ADD SWAP1 POP PUSH2 0xF7A PUSH1 0x0 DUP4 ADD DUP5 PUSH2 0xEF2 JUMP JUMPDEST SWAP3 SWAP2 POP POP JUMP JUMPDEST PUSH1 0x0 PUSH1 0x60 DUP3 ADD SWAP1 POP PUSH2 0xF95 PUSH1 0x0 DUP4 ADD DUP7 PUSH2 0xEF2 JUMP JUMPDEST PUSH2 0xFA2 PUSH1 0x20 DUP4 ADD DUP6 PUSH2 0xEF2 JUMP JUMPDEST PUSH2 0xFAF PUSH1 0x40 DUP4 ADD DUP5 PUSH2 0xF56 JUMP JUMPDEST SWAP5 SWAP4 POP POP POP POP JUMP JUMPDEST PUSH1 0x0 PUSH1 0x40 DUP3 ADD SWAP1 POP PUSH2 0xFCC PUSH1 0x0 DUP4 ADD DUP6 PUSH2 0xEF2 JUMP JUMPDEST PUSH2 0xFD9 PUSH1 0x20 DUP4 ADD DUP5 PUSH2 0xF56 JUMP JUMPDEST SWAP4 SWAP3 POP POP POP JUMP JUMPDEST PUSH1 0x0 PUSH1 0x20 DUP3 ADD SWAP1 POP PUSH2 0xFF5 PUSH1 0x0 DUP4 ADD DUP5 PUSH2 0xF01 JUMP JUMPDEST SWAP3 SWAP2 POP POP JUMP JUMPDEST PUSH1 0x0 PUSH1 0x20 DUP3 ADD SWAP1 POP DUP2 DUP2 SUB PUSH1 0x0 DUP4 ADD MSTORE PUSH2 0x1014 DUP2 PUSH2 0xF10 JUMP JUMPDEST SWAP1 POP SWAP2 SWAP1 POP JUMP JUMPDEST PUSH1 0x0 PUSH1 0x20 DUP3 ADD SWAP1 POP DUP2 DUP2 SUB PUSH1 0x0 DUP4 ADD MSTORE PUSH2 0x1034 DUP2 PUSH2 0xF33 JUMP JUMPDEST SWAP1 POP SWAP2 SWAP1 POP JUMP JUMPDEST PUSH1 0x0 PUSH1 0x20 DUP3 ADD SWAP1 POP PUSH2 0x1050 PUSH1 0x0 DUP4 ADD DUP5 PUSH2 0xF56 JUMP JUMPDEST SWAP3 SWAP2 POP POP JUMP JUMPDEST PUSH1 0x0 DUP3 DUP3 MSTORE PUSH1 0x20 DUP3 ADD SWAP1 POP SWAP3 SWAP2 POP POP JUMP JUMPDEST PUSH1 0x0 PUSH2 0x1072 DUP3 PUSH2 0x11BA JUMP JUMPDEST SWAP2 POP PUSH2 0x107D DUP4 PUSH2 0x11BA JUMP JUMPDEST SWAP3 POP DUP3 PUSH32 0xFFFFFFFFFFFFFFFFFFFFFFFFFFFFFFFFFFFFFFFFFFFFFFFFFFFFFFFFFFFFFFFF SUB DUP3 GT ISZERO PUSH2 0x10B2 JUMPI PUSH2 0x10B1 PUSH2 0x1243 JUMP JUMPDEST JUMPDEST DUP3 DUP3 ADD SWAP1 POP SWAP3 SWAP2 POP POP JUMP JUMPDEST PUSH1 0x0 PUSH2 0x10C8 DUP3 PUSH2 0x11BA JUMP JUMPDEST SWAP2 POP PUSH2 0x10D3 DUP4 PUSH2 0x11BA JUMP JUMPDEST SWAP3 POP DUP3 PUSH2 0x10E3 JUMPI PUSH2 0x10E2 PUSH2 0x1272 JUMP JUMPDEST JUMPDEST DUP3 DUP3 DIV SWAP1 POP SWAP3 SWAP2 POP POP JUMP JUMPDEST PUSH1 0x0 PUSH2 0x10F9 DUP3 PUSH2 0x11BA JUMP JUMPDEST SWAP2 POP PUSH2 0x1104 DUP4 PUSH2 0x11BA JUMP JUMPDEST SWAP3 POP DUP2 PUSH32 0xFFFFFFFFFFFFFFFFFFFFFFFFFFFFFFFFFFFFFFFFFFFFFFFFFFFFFFFFFFFFFFFF DIV DUP4 GT DUP3 ISZERO ISZERO AND ISZERO PUSH2 0x113D JUMPI PUSH2 0x113C PUSH2 0x1243 JUMP JUMPDEST JUMPDEST DUP3 DUP3 MUL SWAP1 POP SWAP3 SWAP2 POP POP JUMP JUMPDEST PUSH1 0x0 PUSH2 0x1153 DUP3 PUSH2 0x11BA JUMP JUMPDEST SWAP2 POP PUSH2 0x115E DUP4 PUSH2 0x11BA JUMP JUMPDEST SWAP3 POP DUP3 DUP3 LT ISZERO PUSH2 0x1171 JUMPI PUSH2 0x1170 PUSH2 0x1243 JUMP JUMPDEST JUMPDEST DUP3 DUP3 SUB SWAP1 POP SWAP3 SWAP2 POP POP JUMP JUMPDEST PUSH1 0x0 PUSH2 0x1187 DUP3 PUSH2 0x119A JUMP JUMPDEST SWAP1 POP SWAP2 SWAP1 POP JUMP JUMPDEST PUSH1 0x0 DUP2 ISZERO ISZERO SWAP1 POP SWAP2 SWAP1 POP JUMP JUMPDEST PUSH1 0x0 PUSH20 0xFFFFFFFFFFFFFFFFFFFFFFFFFFFFFFFFFFFFFFFF DUP3 AND SWAP1 POP SWAP2 SWAP1 POP JUMP JUMPDEST PUSH1 0x0 DUP2 SWAP1 POP SWAP2 SWAP1 POP JUMP JUMPDEST PUSH1 0x0 PUSH2 0x11CF DUP3 PUSH2 0x11D6 JUMP JUMPDEST SWAP1 POP SWAP2 SWAP1 POP JUMP JUMPDEST PUSH1 0x0 PUSH2 0x11E1 DUP3 PUSH2 0x11E8 JUMP JUMPDEST SWAP1 POP SWAP2 SWAP1 POP JUMP JUMPDEST PUSH1 0x0 PUSH2 0x11F3 DUP3 PUSH2 0x119A JUMP JUMPDEST SWAP1 POP SWAP2 SWAP1 POP JUMP JUMPDEST PUSH1 0x0 PUSH2 0x1205 DUP3 PUSH2 0x11BA JUMP JUMPDEST SWAP2 POP PUSH32 0xFFFFFFFFFFFFFFFFFFFFFFFFFFFFFFFFFFFFFFFFFFFFFFFFFFFFFFFFFFFFFFFF DUP3 EQ ISZERO PUSH2 0x1238 JUMPI PUSH2 0x1237 PUSH2 0x1243 JUMP JUMPDEST JUMPDEST PUSH1 0x1 DUP3 ADD SWAP1 POP SWAP2 SWAP1 POP JUMP JUMPDEST PUSH32 0x4E487B7100000000000000000000000000000000000000000000000000000000 PUSH1 0x0 MSTORE PUSH1 0x11 PUSH1 0x4 MSTORE PUSH1 0x24 PUSH1 0x0 REVERT JUMPDEST PUSH32 0x4E487B7100000000000000000000000000000000000000000000000000000000 PUSH1 0x0 MSTORE PUSH1 0x12 PUSH1 0x4 MSTORE PUSH1 0x24 PUSH1 0x0 REVERT JUMPDEST PUSH1 0x0 DUP1 REVERT JUMPDEST PUSH32 0x496E76616C696420736861726520616D6F756E74000000000000000000000000 PUSH1 0x0 DUP3 ADD MSTORE POP JUMP JUMPDEST PUSH32 0x496E76616C6964206C697175696469747920616D6F756E740000000000000000 PUSH1 0x0 DUP3 ADD MSTORE POP JUMP JUMPDEST PUSH2 0x1301 DUP2 PUSH2 0x117C JUMP JUMPDEST DUP2 EQ PUSH2 0x130C JUMPI PUSH1 0x0 DUP1 REVERT JUMPDEST POP JUMP JUMPDEST PUSH2 0x1318 DUP2 PUSH2 0x118E JUMP JUMPDEST DUP2 EQ PUSH2 0x1323 JUMPI PUSH1 0x0 DUP1 REVERT JUMPDEST POP JUMP JUMPDEST PUSH2 0x132F DUP2 PUSH2 0x11BA JUMP JUMPDEST DUP2 EQ PUSH2 0x133A JUMPI PUSH1 0x0 DUP1 REVERT JUMPDEST POP JUMP INVALID LOG2 PUSH5 0x6970667358 0x22 SLT KECCAK256 CALLDATACOPY 0xCE 0x24 DUP10 LT 0xB2 0xCC 0xF8 0xDF SLOAD 0xB3 0x5F PUSH29 0xED69161032A1A0F673C0F7C91F7CB0E9ECDAD364736F6C634300080700 CALLER "
				},
				"gasEstimates": {
					"creation": {
						"codeDepositCost": "995800",
						"executionCost": "infinite",
						"totalCost": "infinite"
					},
					"external": {
						"addLiquidity(uint256,uint256)": "infinite",
						"echoBalances(address)": "2837",
						"echoToken()": "2707",
						"getReward()": "infinite",
						"orpheusBalances(address)": "2814",
						"orpheusToken()": "2601",
						"removeLiquidity(uint256)": "infinite",
						"shares(address)": "2902",
						"totalEcho()": "2518",
						"totalOrpheus()": "2451",
						"totalShares()": "2474"
					},
					"internal": {
						"sqrt(uint256)": "infinite"
					}
				},
				"methodIdentifiers": {
					"addLiquidity(uint256,uint256)": "9cd441da",
					"echoBalances(address)": "1e31dc58",
					"echoToken()": "e5babf98",
					"getReward()": "3d18b912",
					"orpheusBalances(address)": "6205230e",
					"orpheusToken()": "14354f9f",
					"removeLiquidity(uint256)": "9c8f9f23",
					"shares(address)": "ce7c2ac2",
					"totalEcho()": "5361b7eb",
					"totalOrpheus()": "90294664",
					"totalShares()": "3a98ef39"
				}
			},
			"storageLayout": {
				"storage": [
					{
						"astId": 83,
						"contract": "contracts/liquid.sol:LiquidityPool",
						"label": "echoToken",
						"offset": 0,
						"slot": "0",
						"type": "t_contract(IERC20)77"
					},
					{
						"astId": 86,
						"contract": "contracts/liquid.sol:LiquidityPool",
						"label": "orpheusToken",
						"offset": 0,
						"slot": "1",
						"type": "t_contract(IERC20)77"
					},
					{
						"astId": 90,
						"contract": "contracts/liquid.sol:LiquidityPool",
						"label": "echoBalances",
						"offset": 0,
						"slot": "2",
						"type": "t_mapping(t_address,t_uint256)"
					},
					{
						"astId": 94,
						"contract": "contracts/liquid.sol:LiquidityPool",
						"label": "orpheusBalances",
						"offset": 0,
						"slot": "3",
						"type": "t_mapping(t_address,t_uint256)"
					},
					{
						"astId": 96,
						"contract": "contracts/liquid.sol:LiquidityPool",
						"label": "totalEcho",
						"offset": 0,
						"slot": "4",
						"type": "t_uint256"
					},
					{
						"astId": 98,
						"contract": "contracts/liquid.sol:LiquidityPool",
						"label": "totalOrpheus",
						"offset": 0,
						"slot": "5",
						"type": "t_uint256"
					},
					{
						"astId": 100,
						"contract": "contracts/liquid.sol:LiquidityPool",
						"label": "totalShares",
						"offset": 0,
						"slot": "6",
						"type": "t_uint256"
					},
					{
						"astId": 104,
						"contract": "contracts/liquid.sol:LiquidityPool",
						"label": "shares",
						"offset": 0,
						"slot": "7",
						"type": "t_mapping(t_address,t_uint256)"
					}
				],
				"types": {
					"t_address": {
						"encoding": "inplace",
						"label": "address",
						"numberOfBytes": "20"
					},
					"t_contract(IERC20)77": {
						"encoding": "inplace",
						"label": "contract IERC20",
						"numberOfBytes": "20"
					},
					"t_mapping(t_address,t_uint256)": {
						"encoding": "mapping",
						"key": "t_address",
						"label": "mapping(address => uint256)",
						"numberOfBytes": "32",
						"value": "t_uint256"
					},
					"t_uint256": {
						"encoding": "inplace",
						"label": "uint256",
						"numberOfBytes": "32"
					}
				}
			},
			"userdoc": {
				"kind": "user",
				"methods": {},
				"version": 1
			}
		}
	}
}